:020000040800F2
:1000000000000220A5380008CD2D0008D32D0008DF
:10001000D92D0008DF2D0008E52D000800000000A4
:10002000000000000000000000000000EB2D0008B0
:10003000F92D000800000000072E0008152E00080A
:10004000F5380008F5380008F5380008F5380008DC
:10005000F5380008F5380008212E0008F5380008AA
:10006000F5380008F5380008F5380008F5380008BC
:10007000F5380008F5380008F5380008F5380008AC
:10008000F5380008F5380008F5380008F53800089C
:10009000F5380008F5380008F5380008F53800088C
:1000A000F5380008F5380008F5380008F53800087C
:1000B000412E0008F5380008F5380008F53800082A
:1000C000F5380008F5380008F5380008F53800085C
:1000D000F5380008F5380008552E0008F5380008F6
:1000E000B12E0008F5380008F5380008F53800088A
:1000F000F5380008F5380008F5380008F53800082C
:10010000F5380008F5380008F5380008F53800081B
:10011000F5380008292F0008F5380008F5380008E0
:10012000F5380008F5380008F5380008F5380008FB
:10013000F53800080000000000000000F538000855
:10014000F5380008F5380008F5380008F5380008DB
:10015000F5380008F5380008F5380008852F000844
:10016000F5380008F5380008F5380008F5380008BB
:10017000F5380008F5380008F538000800000000E0
:1001800000000000F538000800000000000000003A
:10019000F53800080000000000000000F5380008F5
:1001A000000000000000000000000000F53800081A
:1001B000F5380008F5380008F5380008F53800086B
:0401C000F538000806
:1001C40010B5054C237833B9044B13B10448AFF38D
:1001D40000800123237010BD1400002000000000E3
:1001E400AC7B000808B5034B1BB103490348AFF3CC
:1001F400008008BD0000000018000020AC7B00084F
:1002040053B94AB9002908BF00281CBF4FF0FF3179
:100214004FF0FF3000F074B9ADF1080C6DE904CE75
:1002240000F006F8DDF804E0DDE9022304B07047CD
:100234002DE9F047089D04468E46002B4DD18A4295
:10024400944669D9B2FA82F252B101FA02F3C2F1C8
:10025400200120FA01F10CFA02FC41EA030E944059
:100264004FEA1C48210CBEFBF8F61FFA8CF708FB7A
:1002740016E341EA034306FB07F199420AD91CEB52
:10028400030306F1FF3080F01F81994240F21C8184
:10029400023E63445B1AA4B2B3FBF8F008FB1033CC
:1002A40044EA034400FB07F7A7420AD91CEB040401
:1002B40000F1FF3380F00A81A74240F207816444D1
:1002C400023840EA0640E41B00261DB1D440002356
:1002D400C5E900433146BDE8F0878B4209D9002DBA
:1002E40000F0EF800026C5E9000130463146BDE844
:1002F400F087B3FA83F6002E4AD18B4202D38242AE
:1003040000F2F980841A61EB030301209E46002D5C
:10031400E0D0C5E9004EDDE702B9FFDEB2FA82F2B1
:10032400002A40F09280A1EB0C014FEA1C471FFA0F
:100334008CFE0126200CB1FBF7F307FB131140EAF6
:1003440001410EFB03F0884208D91CEB010103F1C3
:10035400FF3802D2884200F2CB804346091AA4B285
:10036400B1FBF7F007FB101144EA01440EFB00FE59
:10037400A64508D91CEB040400F1FF3102D2A645BE
:1003840000F2BB800846A4EB0E0440EA03409CE75D
:10039400C6F12007B34022FA07FC4CEA030C20FA0A
:1003A40007F401FA06F31C43F9404FEA1C4900FA2A
:1003B40006F3B1FBF9F8200C1FFA8CFE09FB1811A7
:1003C40040EA014108FB0EF0884202FA06F20BD91A
:1003D4001CEB010108F1FF3A80F08880884240F26A
:1003E4008580A8F102086144091AA4B2B1FBF9F0AE
:1003F40009FB101144EA014100FB0EFE8E4508D9A9
:100404001CEB010100F1FF346CD28E456AD902382D
:10041400614440EA0840A0FB0294A1EB0E01A14212
:10042400C846A64656D353D05DB1B3EB080261EB80
:100434000E0101FA07F722FA06F3F1401F43C5E95A
:10044400007100263146BDE8F087C2F12003D84090
:100454000CFA02FC21FA03F3914001434FEA1C47D2
:100464001FFA8CFEB3FBF7F007FB10360B0C43EAC4
:10047400064300FB0EF69E4204FA02F408D91CEB74
:10048400030300F1FF382FD29E422DD90238634472
:100494009B1B89B2B3FBF7F607FB163341EA034112
:1004A40006FB0EF38B4208D91CEB010106F1FF3861
:1004B40016D28B4214D9023E6144C91A46EA004658
:1004C40038E72E46284605E70646E3E61846F8E6EA
:1004D4004B45A9D2B9EB020864EB0C0E0138A3E733
:1004E4004646EAE7204694E74046D1E7D0467BE714
:1004F400023B614432E7304609E76444023842E78C
:10050400704700BF80B584B000AF3B4600221A603C
:100514005A609A60DA60214B214A1A601F4B4FF4EB
:1005240040325A601D4B00229A601C4B00221A6113
:100534001A4B00221A76194B002283F82020174BFD
:100544000022DA62154B174A9A62144B0022DA60D1
:10055400124B0122DA61114B002283F830200F4B39
:1005640001225A610D4803F037FA0346002B01D0EB
:1005740000F002FD00233B6001237B600423BB6089
:100584003B461946054803F009FC0346002B01D0FD
:1005940000F0F2FC00BF1037BD4680BD3C000020D7
:1005A400002001400100000F80B58AB000AF7860E0
:1005B40007F1140300221A605A609A60DA601A6123
:1005C4007B681B68174A934227D100233B61164B73
:1005D4005B6C154A43F480735364134B5B6C03F4F4
:1005E40080733B613B690023FB600F4B1B6B0E4A1E
:1005F40043F0010313630C4B1B6B03F00103FB601B
:10060400FB6801237B610323BB610023FB6107F1CA
:1006140014031946054803F093FF00BF2837BD466D
:1006240080BD00BF002001400038024000000240AD
:1006340080B500AF254803F013FA6421234803F082
:1006440014FB224803F09CFB03469AB2204B1A8009
:100654001F4B1B889BB21A461E4B1B6813441D4A32
:1006640013601D4B1B78DBB20133DAB21A4B1A70DC
:10067400164803F0C7FA0A2000F08CF8164B1B78D2
:10068400DBB2642B20D1134B1B68144AA2FB032357
:100694005B099AB2124B1A80114B1B889BB207EE6E
:1006A400903AB8EEE77ADFED0F6AC7EE267AFCEEF1
:1006B400E77A17EE903A9AB20B4B1A80054B002258
:1006C4001A60054B00221A7000BF80BD3C00002058
:1006D4003200002034000020380000201F85EB5138
:1006E4003A000020FBCB22403000002080B584B0CB
:1006F40000AF78600D4B5B68FB6004F01DFA0346A5
:100704000B4AA2FB03239B0C7A6802FB03F37B6076
:1007140000BF064B5A68FB68D21A7B689A42F8D32A
:1007240000BF00BF1037BD4680BD00BF001000E011
:1007340083DE1B4380B400AF144BDB68134A23F001
:100744008073D360114BDB68104A43F08073D3602D
:100754000F4B1B680E4A23F0010313600C4B1B68FC
:100764000B4A43F001031360094B00225A6000BF97
:1007740000BF00BF064B5B68002B01D0002300E0E4
:1007840001231846BD465DF8047B7047F0ED00E098
:10079400001000E080B582B000AF78607B684FF451
:1007A4007A7202FB03F31846FFF7A0FF00BF083775
:1007B400BD4680BD80B400AF044BDB681B0A03F068
:1007C40007031846BD465DF8047B704700ED00E062
:1007D40080B483B000AF0346FB7197F90730002B58
:1007E4000BDBFB7903F01F02074997F907305B091C
:1007F400012000FA02F241F8232000BF0C37BD4665
:100804005DF8047B704700BF00E100E080B483B072
:1008140000AF03463960FB7197F90730002B0ADB00
:100824003B68DAB20C4997F907301201D2B20B4493
:1008340083F800230AE03B68DAB20849FB7903F045
:100844000F03043B1201D2B20B441A7600BF0C37DB
:10085400BD465DF8047B704700E100E000ED00E078
:1008640080B489B000AFF860B9607A60FB6803F0C7
:100874000703FB61FB69C3F10703042B28BF0423AF
:10088400BB61FB690433062B02D9FB69033B00E01F
:1008940000237B614FF0FF32BB6902FA03F3DA43B2
:1008A400BB681A407B699A404FF0FF317B6901FABB
:1008B40003F3D9437B680B40134318462437BD46E2
:1008C4005DF8047B7047000080B485B000AF7860A9
:1008D4003960134A3B68DBB2023352F823203B6889
:1008E4001B0CDB4302EA03013B681B0CFB60FB6847
:1008F40093FAA3F3BB60BB68B3FA83F3DBB21A4683
:100904007B6803FA02F206483B68DBB20A4302330F
:1009140040F8232000BF1437BD465DF8047B7047C0
:100924000038014080B489B000AFF860B9607A60E3
:10093400FB681A68BB687B617B6993FAA3F33B612C
:100944003B69B3FA83F3DBB25B00032101FA03F3DF
:10095400DB431A40BB68FB61FB6993FAA3F3BB61F9
:10096400BB69B3FA83F3DBB25B00796801FA03F382
:100974001A43FB681A6000BF2437BD465DF8047B48
:10098400704780B489B000AFF860B9607A60FB68E2
:10099400DA68BB687B617B6993FAA3F33B613B69CB
:1009A400B3FA83F3DBB25B00032101FA03F3DB4305
:1009B4001A40BB68FB61FB6993FAA3F3BB61BB6993
:1009C400B3FA83F3DBB25B00796801FA03F31A43E9
:1009D400FB68DA6000BF2437BD465DF8047B7047CE
:1009E40080B483B000AF786039603B681A047B68D8
:1009F4009A6100BF0C37BD465DF8047B7047000068
:100A040080B485B000AF7860084B1A6B07497B68E7
:100A140013430B63054B1A6B7B681340FB60FB6845
:100A240000BF1437BD465DF8047B704700380240B0
:100A340080B588B000AF07F1180300221A605A602D
:100A44003B4600221A605A609A60DA601A615A6161
:100A54000420FFF7D5FF8020FFF7D2FF0120FFF726
:100A6400CFFF0220FFF7CCFF0820FFF7C9FF42F6B3
:100A740007418148FFF7B4FF82218048FFF7B0FFA8
:100A840045F2E0317E48FFF7ABFF42F607433B6097
:100A940001237B600023BB600023FB6000233B61D8
:100AA4003B461946744806F0CFFF82233B6001237E
:100AB4007B600023BB600123FB6000233B613B465A
:100AC40019466E4806F0C0FF41F670133B600023E0
:100AD4007B6000233B613B461946684806F0B4FF3F
:100AE40020233B6002237B600323BB600023FB6065
:100AF40000233B6107237B613B4619465E4806F0B1
:100B0400A3FF4FF480633B6002237B600323BB603D
:100B14000023FB6000233B6107237B613B461946AE
:100B2400574806F091FF4FF480533B6001237B60EC
:100B34000023BB600123FB6000233B613B46194655
:100B44004F4806F081FF4FF400533B6000237B6065
:100B540000233B613B461946494806F075FF44F2C1
:100B6400E0333B6001237B600023BB600023FB6018
:100B740000233B613B461946414806F065FF4FF4AC
:100B840000733B6000237B6000233B613B461946B6
:100B9400394806F059FF4FF4C0633B6002237B6081
:100BA4000323BB600023FB6000233B6107237B61BD
:100BB4003B461946314806F047FF4FF470210120A7
:100BC400FFF782FE2F490120FFF77EFE0123BB6160
:100BD40001233B7700237B770323BB7707F11803BB
:100BE400184606F0ABFD4FF40043BB6101233B778D
:100BF40000237B770123BB7707F11803184606F01F
:100C04009DFD002201211E48FFF7BBFE00224FF488
:100C140000411B48FFF7B5FE002201211848FFF7E9
:100C240081FE00224FF400411548FFF77BFEFFF7D9
:100C3400C1FD0346002200211846FFF711FE0346BA
:100C440019460620FFF7E2FD0620FFF7C1FDFFF776
:100C5400B1FD0346002200211846FFF701FE0346BA
:100C640019462820FFF7D2FD2820FFF7B1FD00BF69
:100C74002037BD4680BD00BF00080240000002408E
:100C840000040240030000F080B483B000AF786039
:100C940039607B683A689A6100BF0C37BD465DF8DD
:100CA400047B704780B483B000AF786039603B68E0
:100CB4001A047B689A6100BF0C37BD465DF8047B5B
:100CC4007047000080B584B000AF78600D4B5B685E
:100CD400FB6003F031FF03460B4AA2FB03239B0C8A
:100CE4007A6802FB03F37B6000BF064B5A68FB681B
:100CF400D21A7B689A42F8D300BF00BF1037BD46B2
:100D040080BD00BF001000E083DE1B4380B500AF50
:100D140002F0F0FD00F0B2F8FFF78AFEFFF7F2FBF5
:100D240002F056FC02F054FA02F0A6FC02F002FAB9
:100D340002F078FC00F014F9FFF7FCFC454801F0E0
:100D440003FA454801F000FA02F08CF9434B1B68A2
:100D5400DA68424B1B6842F02002DA60404B1B68A1
:100D6400DA683F4B1B6842F02002DA603D4B1B7887
:100D7400DBB2002B2FD13C4B1B78DBB2062B66D8A1
:100D840001A252F823F000BFA90D0008AF0D00081E
:100D9400B50D0008BB0D0008C10D0008C70D000803
:100DA400CD0D000801F076FA52E001F001FB4FE0AE
:100DB40001F058FB4CE001F0A5FB49E001F022FCF6
:100DC40046E001F0ADFD43E0284B1B78DBB218464A
:100DD40000F092FB3CE0264B1B78002B29D14FF40A
:100DE40080412448FFF750FF4FF40051214803F09D
:100DF4003BFD03461A461E4B1A704FF480411D48B2
:100E0400FFF750FF1C4B1B780133DAB21A4B1A70F0
:100E1400194B1B78042B08D90C2000F06DFB144BE4
:100E240001221A70144B00221A701420FFF74AFF93
:100E34009CE74FF480410F48FFF726FF4FF48041B1
:100E44000C48FFF72FFF1420FFF73CFF8EE700BF8D
:100E54008CE700BF8804002098000020B80A002016
:100E6400740A00209A0900208400002095000020C4
:100E740085000020000402408600002080B594B064
:100E840000AF07F11C0334220021184606F084FE4B
:100E940007F1080300221A605A609A60DA601A6146
:100EA40000237B602C4B1B6C2B4A43F08053136450
:100EB400294B1B6C03F080537B607B6800233B60F1
:100EC400264B1B68254A43F440431360234B1B689D
:100ED40003F440433B603B680123FB614FF48033E0
:100EE4003B6202237B634FF48003BB630C23FB63ED
:100EF400B4233B6402237B640223BB640223FB64AC
:100F040007F11C03184603F0F5FF0346002B01D03C
:100F140000F032F803F0DAFC0346002B01D000F0B5
:100F24002BF80F23BB600323FB6000233B614FF4CA
:100F3400A0537B614FF48053BB6107F10803052183
:100F4400184603F013FD0346002B01D000F014F8FB
:100F540000BF5037BD4680BD0038024000700040DD
:100F640080B500AF002200211C2003F020FA1C20D1
:100F740003F039FA00BF80BD80B400AF72B600BF81
:100F8400FEE7000080B584B000AF78600B46FB70CC
:100F94000023FB730023FB72FB78042B53D8FB7AEA
:100FA4005A1CFA721A462E4BFA219954FB7A5A1C8F
:100FB400FA721A462A4B00219954FB7A5A1CFA7287
:100FC4001A46274BD0219954FB7A5A1CFA721A46B6
:100FD400234B0F219954FB7A5A1CFA721946204A62
:100FE400FB785354FB7A5A1CFA721A461C4B0021A4
:100FF4009954FB7A5A1CFA721A46194B00219954D7
:10100400FB7A5A1CFA721A46154B00219954144B58
:101014001B78FB730123BB8108E0BB89104AD25CB7
:10102400FB7B5340FB73BB890133BB81FB7A9BB2CF
:10103400BA899A42F1D3FB7A5A1CFA721946084AC1
:10104400FB7B535400E000BF40F6B8330922044947
:10105400786805F014FB00BF1037BD4680BD00BFA3
:101064008C00002080B586B000AF03460A46FB71B1
:101074001346BB710023FB750023FB740023BB6084
:1010840007F10C0300221A601A71FB79002B04D0BB
:10109400002B60DB023B062B5DD8FB7C5A1CFA74E8
:1010A40018333B44FA2203F8102CFB7C5A1CFA74C4
:1010B40018333B44002203F8102CFB7C5A1CFA74AE
:1010C40018333B44D02203F8102CFB7C5A1CFA74CE
:1010D40018333B44F02203F8102CFB7C5A1CFA749E
:1010E40018333B44FA7903F8102CFB7C5A1CFA742D
:1010F40018333B44002203F8102CFB7C5A1CFA746E
:1011040018333B44012203F8102CFB7C5A1CFA745C
:1011140018333B44BA7903F8102C3B7AFB7501234E
:10112400BB820AE0BB8A18333B4413F8102CFB7DC6
:101134005340FB75BB8A0133BB82FB7C9BB2BA8AEA
:101144009A42EFD3FB7C5A1CFA7418333B44FA7D61
:1011540003F8102C00E000BF07F108016423092202
:10116400034805F08CFA00BF1837BD4680BD00BFA8
:10117400300A002080B586B000AF0346FB7100231F
:10118400FB750023FB740023BB6007F10C030022F2
:101194001A609A80FB7C5A1CFA7418333B44FA2276
:1011A40003F8102CFB7C5A1CFA7418333B440022BD
:1011B40003F8102CFB7C5A1CFA7418333B44D022DD
:1011C40003F8102CFB7C5A1CFA7418333B44F022AD
:1011D40003F8102CFB7C5A1CFA7418333B4401228C
:1011E40003F8102CFB7C5A1CFA7418333B4400227D
:1011F40003F8102CFB7C5A1CFA7418333B4401226C
:1012040003F8102CFB7C5A1CFA7418333B44FA790B
:1012140003F8102C194B1B889AB2FB7C591CF974E7
:10122400D2B218333B4403F8102C3B7AFB750123EC
:10123400BB820AE0BB8A18333B4413F8102CFB7DB5
:101244005340FB75BB8A0133BB82FB7C9BB2BA8AD9
:101254009A42EFD3FB7C5A1CFA7418333B44FA7D50
:1012640003F8102C07F1080164230A22044805F04E
:1012740006FA00BF1837BD4680BD00BF300000200D
:10128400300A002080B586B000AF03460A46FB71E1
:101294001346BB710023FB750023FB740023BB6062
:1012A40007F10C0300221A601A71FB7C5A1CFA74B1
:1012B40018333B44FA2203F8102CFB7C5A1CFA74B2
:1012C40018333B44002203F8102CFB7C5A1CFA749C
:1012D40018333B44D02203F8102CFB7C5A1CFA74BC
:1012E40018333B440F2203F8102CFB7C5A1CFA746D
:1012F40018333B44FA7903F8102CFB7C5A1CFA741B
:1013040018333B44002203F8102CFB7C5A1CFA745B
:1013140018333B44012203F8102CFB7C5A1CFA744A
:1013240018333B44BA7903F8102C3B7AFB7501233C
:10133400BB820AE0BB8A18333B4413F8102CFB7DB4
:101344005340FB75BB8A0133BB82FB7C9BB2BA8AD8
:101354009A42EFD3FB7C5A1CFA7418333B44FA7D4F
:1013640003F8102C07F1080164230922034805F04F
:1013740086F900BF1837BD4680BD00BF300A002083
:1013840080B483B000AF786039607B683A689A6152
:1013940000BF0C37BD465DF8047B704780B483B052
:1013A40000AF786039603B681A047B689A6100BFBB
:1013B4000C37BD465DF8047B70470000B0B48BB0B9
:1013C40000AF0346FB71FB79002B08D0FB79022B9D
:1013D40005D0FB79042B02D0FB79062B34D11F4BAB
:1013E40007F108041D460FCD0FC495E80F0084E8EB
:1013F4000F001B4B1B681946FB799B0028333B44A9
:1014040053F8202C174B1B68B1FBF2F2DA62144B31
:101414001B681A46FB799B0028333B4453F8203C55
:10142400B2FBF3F30F4AD3600F4B1B681A46FB79E8
:101434009B0028333B4453F8203CB2FBF3F2094BA6
:101444001B685208DA6304E0064B1B680022DA6367
:1014540000BF00BF2C37BD46B0BC7047C47B00083A
:1014640000000020E809002004000020B0B48BB084
:1014740000AF0346FB711C4B07F108041D460FCD5A
:101484000FC495E80F0084E80F00184B1B68194639
:10149400FB799B0028333B4453F8202C144B1B68E6
:1014A400B1FBF2F2DA62114B1B681A46FB799B001E
:1014B40028333B4453F8203CB2FBF3F30C4AD3608B
:1014C4000C4B1B681A46FB799B0028333B4453F8AA
:1014D400203CB2FBF3F2064B1B685208DA6300BFF0
:1014E4002C37BD46B0BC7047E47B000800000020E8
:1014F400E80900200400002080B58AB000AF03464C
:10150400FB71D74AFB791370D54B1B78DBB20D2BDB
:1015140000F2288301A252F823F000BF59150008F5
:101524007F150008FB1500087B160008FB16000851
:101534007B170008E917000857180008D518000899
:1015440043190008B11900081F1A00088D1A000871
:10155400FB1A00080421C348FFF720FF2021C248DA
:10156400FFF71CFF4FF40061BE48FFF717FF4FF46D
:101574008061BC48FFF712FFF5E20821BB4804F084
:101584009FF8002387F8273030E097F82730184673
:10159400FFF76CFF012387F826301EE000F0FAFA0B
:1015A40000F060FB0120FFF7F5F800F00DFB00F000
:1015B40081FB0120FFF7EEF800F020FB00F0A2FB16
:1015C4000120FFF7E7F800F033FB0120FFF7E2F812
:1015D40097F82630013387F8263097F826307D2B8C
:1015E400DCD997F82730013387F8273097F827306C
:1015F400072BCAD9B7E208219C4804F061F80023FC
:1016040087F8253032E097F825301846FFF7D6FEE4
:10161400012387F8243020E000F0BCFA00F09AFBA4
:101624000120FFF7B7F800F0CFFA00F0BBFB012070
:10163400FFF7B0F800F0E2FA00F0DCFB0120FFF75E
:10164400A9F800F0F5FA00F0FDFB0120FFF7A2F87D
:1016540097F82430013387F8243097F824307D2B11
:10166400DAD997F82530013387F8253097F82530F3
:10167400072BC8D977E208217C4804F021F800231D
:1016840087F8233032E097F823301846FFF796FEA8
:10169400012387F8223020E000F07CFA00F05AFBA6
:1016A4000120FFF777F800F08FFA00F07BFB0120B0
:1016B400FFF770F800F0A2FA00F09CFB0120FFF79E
:1016C40069F800F0B5FA00F0E5FB0120FFF762F8D5
:1016D40097F82230013387F8223097F822307D2B97
:1016E400DAD997F82330013387F8233097F8233079
:1016F400072BC8D937E208215C4803F0E1FF002337
:1017040087F8213032E097F821301846FFF756FE6B
:10171400012387F8203020E000F03CFA00F01AFBA7
:101724000120FFF737F800F04FFA00F03BFB0120EF
:10173400FFF730F800F062FA00F05CFB0120FFF7DD
:1017440029F800F075FA00F0CDFB0120FFF722F82C
:1017540097F82030013387F8203097F820307D2B1C
:10176400DAD997F82130013387F8213097F82130FE
:10177400072BC8D9F7E108213C4803F0A1FF002357
:10178400FB772BE0FB7F1846FFF718FE0123BB779E
:101794001EE000F0FFF900F0DDFA0120FEF7FAFF89
:1017A40000F012FA00F0FEFA0120FEF7F3FF00F059
:1017B40025FA00F01FFB0120FEF7ECFF00F038FAD9
:1017C40000F0B8FB0120FEF7E5FFBB7F0133BB77D8
:1017D400BB7F7D2BDDD9FB7F0133FB77FB7F072BA1
:1017E400D0D9C0E10821214803F06AFF00237B77A8
:1017F4002BE07B7F1846FFF7E1FD01233B771EE0DA
:1018040000F0C8F900F0A6FA0120FEF7C3FF00F0CB
:10181400DBF900F0C7FA0120FEF7BCFF00F0EEF997
:1018240000F0E8FA0120FEF7B5FF00F001FA00F03D
:10183400A9FB0120FEF7AEFF3B7F01333B773B7FE3
:101844007D2BDDD97B7F01337B777B7F072BD0D941
:1018540089E10821054803F033FF0023FB7633E0D8
:10186400950000200008024000040240E80900201E
:10187400FB7E1846FFF7A2FD0123BB761EE000F0B5
:1018840089F900F067FA0120FEF784FF00F09CF963
:1018940000F088FA0120FEF77DFF00F0AFF900F0B8
:1018A400A9FA0120FEF776FF00F0C2F900F092FBDE
:1018B4000120FEF76FFFBB7E0133BB76BB7E7D2B21
:1018C400DDD9FB7E0133FB76FB7E072BD0D94AE1C1
:1018D4000821AD4803F0F4FE00237B762BE07B7EE9
:1018E4001846FFF76BFD01233B761EE000F052F92A
:1018F40000F030FA0120FEF74DFF00F065F900F02A
:1019040051FA0120FEF746FF00F078F900F072FA70
:101914000120FEF73FFF00F08BF900F083FB01206C
:10192400FEF738FF3B7E01333B763B7E7D2BDDD9D2
:101934007B7E01337B767B7E072BD0D913E1082194
:10194400914803F0BDFE0023FB752BE0FB7D184698
:10195400FFF734FD0123BB751EE000F01BF900F016
:10196400F9F90120FEF716FF00F02EF900F01AFA3B
:101974000120FEF70FFF00F041F900F03BFA0120CF
:10198400FEF708FF00F054F900F074FB0120FEF7A5
:1019940001FFBB7D0133BB75BB7D7D2BDDD9FB7D99
:1019A4000133FB75FB7D072BD0D9DCE00821764899
:1019B40003F086FE00237B752BE07B7D1846FFF742
:1019C400FDFC01233B751EE000F0E4F800F0C2F9D1
:1019D4000120FEF7DFFE00F0F7F800F0E3F9012044
:1019E400FEF7D8FE00F00AF900F004FA0120FEF731
:1019F400D1FE00F01DF900F065FB0120FEF7CAFEE0
:101A04003B7D01333B753B7D7D2BDDD97B7D0133F4
:101A14007B757B7D072BD0D9A5E008215A4803F0BC
:101A24004FFE0023FB742BE0FB7C1846FFF7C6FC3B
:101A34000123BB741EE000F0ADF800F08BF9012027
:101A4400FEF7A8FE00F0C0F800F0ACF90120FEF7A4
:101A5400A1FE00F0D3F800F0F5F90120FEF79AFE9C
:101A640000F0E6F800F0C6F90120FEF793FEBB7C17
:101A74000133BB74BB7C7D2BDDD9FB7C0133FB7450
:101A8400FB7C072BD0D96EE008213F4803F018FEF9
:101A940000237B742BE07B7C1846FFF78FFC01232B
:101AA4003B741EE000F076F800F054F90120FEF7D4
:101AB40071FE00F089F800F075F90120FEF76AFE66
:101AC40000F09CF800F0BEF90120FEF763FE00F080
:101AD400AFF800F0B7F90120FEF75CFE3B7C013360
:101AE4003B743B7C7D2BDDD97B7C01337B747B7C1D
:101AF400072BD0D937E00821234803F0E1FD002368
:101B0400FB732BE0FB7B1846FFF758FC0123BB73E8
:101B14001EE000F03FF800F01DF90120FEF73AFE48
:101B240000F052F800F03EF90120FEF733FE00F019
:101B340065F800F087F90120FEF72CFE00F078F834
:101B440000F0A8F90120FEF725FEBB7B0133BB732F
:101B5400BB7B7D2BDDD9FB7B0133FB73FB7B072B2D
:101B6400D0D900E000BF0821074803F071FE00F05F
:101B7400D1FA064B00221A70054B04221A7000BFDA
:101B84002837BD4680BD00BFE8090020950000202D
:101B94008400002080B500AF04210948FFF7F0FB62
:101BA40020210848FFF7FAFB4FF400610448FFF7CF
:101BB400F5FB4FF480610248FFF7F0FB00BF80BDE6
:101BC400000802400004024080B500AF0421094827
:101BD400FFF7E4FB20210848FFF7D2FB4FF4006134
:101BE4000448FFF7DBFB4FF480610248FFF7D6FBA4
:101BF40000BF80BD000802400004024080B500AF71
:101C040004210948FFF7CAFB20210848FFF7C6FB57
:101C14004FF400610448FFF7B3FB4FF480610248BE
:101C2400FFF7BCFB00BF80BD000802400004024077
:101C340080B500AF04210948FFF7B0FB2021084814
:101C4400FFF7ACFB4FF400610448FFF7A7FB4FF428
:101C540080610248FFF794FB00BF80BD000802408A
:101C64000004024080B500AF4FF400510F48FFF765
:101C740087FB80210E48FFF783FB40210C48FFF7C8
:101C84008DFB4FF480710A48FFF788FB0221074857
:101C9400FFF776FB01210548FFF772FB4FF4007153
:101CA4000348FFF76DFB00BF80BD00BF0008024082
:101CB4000004024080B500AF4FF400510F48FFF715
:101CC4005FFB80210E48FFF75BFB40210C48FFF7C8
:101CD40057FB4FF480710A48FFF760FB0221074865
:101CE400FFF74EFB01210548FFF74AFB4FF4007153
:101CF4000348FFF745FB00BF80BD00BF000802405A
:101D04000004024080B500AF4FF400510F48FFF7C4
:101D140037FB80210E48FFF741FB40210C48FFF7B9
:101D24002FFB4FF480710A48FFF72AFB0221074872
:101D3400FFF734FB01210548FFF722FB4FF4007144
:101D44000348FFF71DFB00BF80BD00BF0008024031
:101D54000004024080B500AF4FF400510F48FFF774
:101D64000FFB80210E48FFF719FB40210C48FFF7B9
:101D740015FB4FF480710A48FFF702FB0221074864
:101D8400FFF7FEFA01210548FFF7FAFA4FF4007154
:101D94000348FFF7F5FA00BF80BD00BF000802400A
:101DA4000004024080B500AF4FF400510F48FFF724
:101DB400F5FA80210E48FFF7F1FA40210C48FFF7AD
:101DC400EDFA4FF480710A48FFF7E8FA0221074858
:101DD400FFF7D6FA01210548FFF7E0FA4FF4007146
:101DE4000348FFF7CDFA00BF80BD00BF00080240E2
:101DF4000004024080B500AF4FF400510F48FFF7D4
:101E0400BFFA80210E48FFF7BBFA40210C48FFF7C8
:101E1400B7FA4FF480710A48FFF7B2FA0221074873
:101E2400FFF7AEFA01210548FFF7AAFA4FF4007153
:101E34000348FFF7B3FA00BF80BD00BF00080240AB
:101E44000004024080B500AF4FF400510F48FFF783
:101E5400A5FA80210E48FFF793FA40210C48FFF7BA
:101E64008FFA4FF480710A48FFF798FA0221074865
:101E7400FFF794FA01210548FFF790FA4FF4007137
:101E84000348FFF78BFA00BF80BD00BF0008024083
:101E94000004024080B500AF4FF400510F48FFF733
:101EA4006FFA80210E48FFF76BFA40210C48FFF7C8
:101EB40075FA4FF480710A48FFF762FA0221074865
:101EC400FFF75EFA01210548FFF768FA4FF4007145
:101ED4000348FFF755FA00BF80BD00BF0008024069
:101EE4000004024080B500AF4FF400510F48FFF7E3
:101EF40047FA80210E48FFF743FA40210C48FFF7C8
:101F04003FFA4FF480710A48FFF73AFA0221074872
:101F1400FFF744FA01210548FFF740FA4FF4007136
:101F24000348FFF72DFA00BF80BD00BF0008024040
:101F34000004024080B500AF4FF400510F48FFF792
:101F44002DFA80210E48FFF71BFA40210C48FFF7B9
:101F540017FA4FF480710A48FFF720FA0221074864
:101F6400FFF71CFA01210548FFF70AFA4FF4007144
:101F74000348FFF705FA00BF80BD00BF0008024018
:101F84000004024080B500AF4FF400510F48FFF742
:101F9400F7F980210E48FFF701FA40210C48FFF7BA
:101FA400EFF94FF480710A48FFF7EAF90221074874
:101FB400FFF7F4F901210548FFF7E2F94FF4007146
:101FC4000348FFF7DDF900BF80BD00BF00080240F1
:101FD4000004024080B500AF4FF400510F48FFF7F2
:101FE400CFF980210E48FFF7D9F940210C48FFF7BB
:101FF400C7F94FF480710A48FFF7C2F90221074874
:10200400FFF7BEF901210548FFF7BAF94FF4007153
:102014000348FFF7B5F900BF80BD00BF00080240C8
:102024000004024080B500AF4FF400510F48FFF7A1
:10203400A7F980210E48FFF7A3F940210C48FFF7C8
:102044009FF94FF480710A48FFF7A8F90221074865
:10205400FFF7A4F901210548FFF7A0F94FF4007137
:102064000348FFF79BF900BF80BD00BF0008024092
:102074000004024080B500AF4FF400510F48FFF751
:102084007FF980210E48FFF77BF940210C48FFF7C8
:1020940077F94FF480710A48FFF772F90221074873
:1020A400FFF76EF901210548FFF76AF94FF4007153
:1020B4000348FFF765F900BF80BD00BF0008024078
:1020C4000004024080B500AF4FF400510F48FFF701
:1020D40057F980210E48FFF753F940210C48FFF7C8
:1020E4004FF94FF480710A48FFF74AF90221074873
:1020F400FFF754F901210548FFF742F94FF4007145
:102104000348FFF73DF900BF80BD00BF000802404F
:102114000004024080B500AF04210948FFF73EF9EE
:1021240020210848FFF73AF94FF400610448FFF70B
:1021340035F94FF480610248FFF730F900BF80BDE4
:10214400000802400004024080B483B000AF78600D
:102154007B6800225A807B685A887B681A807B6877
:102164001A887B689A8000BF0C37BD465DF8047BF3
:102174007047000080B485B000AF78600B46FB70F8
:102184007B681B68124A934201D1124B00E0124B48
:10219400FB60FB681B885A1C91B2FA6811801A46CE
:1021A400FB681344FA789A71FB681B88B3F57A7F4D
:1021B40002D1FB6800221A80FB689B8801339AB223
:1021C400FB689A8000BF1437BD465DF8047B7047F6
:1021D40000500040880400209800002080B485B09E
:1021E40000AF78607B681B68144A934201D1144B9A
:1021F40000E0144BFB60FB685B881A46FB681344E1
:102204009B79FB72FB685B8801339AB2FB685A8046
:10221400FB685B88B3F57A7F02D1FB6800225A80A1
:10222400FB689B88013B9AB2FB689A80FB7A18464C
:102234001437BD465DF8047B704700BF0050004072
:10224400880400209800002080B483B000AF786038
:10225400054B1A6804497B6813430B6000BF0C37B5
:10226400BD465DF8047B7047003C014080B483B0F8
:1022740000AF7860064B1A687B68DB43044913405F
:102284000B6000BF0C37BD465DF8047B704700BF90
:10229400003C014090B583B000AF0023FB713B4B81
:1022A4001B78002B03D13A4B1B78002B01D0012360
:1022B40000E00023002B0DD100213648FEF762FE1A
:1022C4000120FEF767FA00213348FEF75BFE012088
:1022D400FEF760FA4FF4FA70FEF75CFA0DE02F4B4C
:1022E4001B785A1CD1B22D4A11701C462948FFF79D
:1022F40075FF03461A462A4B1A552A4B9B88002B16
:10230400EDD1274B1B78FA2B0ED0244B00221A70E8
:102314000D220021224805F03FFC1C4B00221A70BC
:102324001B4B00221A702CE01D4B1B78FB71012300
:10233400BB7108E0BB791A4AD25CFB795340FB714C
:10234400BB790133BB71BA79144B1B78013B9A42B8
:10235400F0DB134B1B7BFA799A420AD1104BDA7AE1
:10236400114B1A700D4B00221A70104B01221A7077
:1023740007E00A4B00221A700D220021084805F0DC
:102384000BFC00BF0C37BD4690BD00BF870000208A
:1023940088000020B80A0020740A00208508002064
:1023A400780800209800002086080020840000207F
:1023B40080B582B000AF0023FB711021214802F0E8
:1023C40053FA0346FB71FB79002B21D01E4B0022EC
:1023D4001A7028E01D4B1B78002B04D002211C48E6
:1023E400FEF7D0FD03E002211A48FEF7CBFD0120E1
:1023F400FEF7D0F91021134802F036FA03461A46C4
:10240400114B1A70144B1B780133DAB2124B1A7049
:10241400114B1B78132B03D80B4B1B78012BD9D1F1
:102424000D4B00221A700D4B1B78042B03D10C4B5F
:1024340003221A7002E00A4B02221A7000BF083706
:10244400BD4680BD000002408708002087000020B0
:10245400B80A0020740A00208A0800208608002098
:102464008400002080B582B000AF0023FB712021DE
:102474001D4802F0F9F90346FB71FB79002B21D0CA
:102484001A4B00221A7028E0194B1B78002B04D039
:1024940003211848FEF776FD03E003211648FEF7F2
:1024A40071FD0120FEF776F920210F4802F0DCF9D6
:1024B40003461A460D4B1A70104B1B780133DAB2DF
:1024C4000E4B1A700D4B1B78132B03D8074B1B783C
:1024D400012BD9D1094B00221A70094B03221A701F
:1024E40000BF0837BD4680BD0000024088080020B8
:1024F40087000020B80A0020740A00208A080020FF
:102504008400002080B582B000AF0023FB71354BFE
:102514001B78042B06D12021334802F0A5F9034689
:10252400FB7105E04021304802F09EF90346FB713F
:10253400FB79002B2ED02D4B00221A7035E02C4B4A
:102544001B78002B04D004212A48FEF71BFD03E06E
:1025540004212948FEF716FD0520FEF71BF9214B3F
:102564001B78042B08D120211F4802F07DF9034673
:102574001A461E4B1A7007E040211B4802F074F9FA
:1025840003461A46194B1A701C4B1B780133DAB2F6
:102594001A4B1A70194B1B78132B03D8134B1B7847
:1025A400012BCCD1154B00221A700023BB710AE019
:1025B40002210D4802F070F94FF4FA70FEF7EAF8C0
:1025C400BB790133BB71BB79032BF1D90C4B0422CA
:1025D4001A704FF40040FFF737FE00BF0837BD46BE
:1025E40080BD00BF8608002000000240890800204A
:1025F40087000020B80A0020740A00208A080020FE
:102604008400002090B599B000AFB24B1B68DA6823
:10261400B04B1B6842F02002DA60002387F85F3079
:10262400AD4A07F1540307CA03C31A70AB4A07F152
:10263400480307CA03C31A70A94A07F13C0307CA2F
:1026440003C31A70A74A07F1300307CA03C31A70F9
:10265400A54A07F1240307CA03C31A70A34A07F162
:10266400180307CA03C31A70A14A07F10C0307CA67
:1026740003C31A709F4A3B4607CA03C31A70FDF787
:10268400D7FF0DE09C4B1B785A1CD1B29A4A1170AB
:102694001C469048FFF7A2FD03461A46974B1A556D
:1026A400974B9B88002BEDD1944B1B78FA2B08D0C9
:1026B400914B00221A7009220021904805F06CFA0F
:1026C40003E18E4B1B7887F85F30012387F85E3077
:1026D4000DE097F85E30894AD25C97F85F3053403A
:1026E40087F85F3097F85E30013387F85E3097F8EB
:1026F4005E20814B1B78013B9A42EADB7F4B1B7ABD
:1027040097F85F209A4240F0D88007F154030922D9
:102714007A49184605F030FA0346002B17D10121F7
:102724000020FEF79FFC774B01221A70764B1B7832
:10273400002B03D14FF40040FFF798FD092200213C
:102744006E4805F029FA6C4B00221A70B1E007F1CB
:10275400480309226949184605F00EFA0346002B7E
:102764000ED164230D2269495A4803F088FF0922D7
:102774000021624805F010FA5F4B00221A7098E0BD
:1027840007F1240309225D49184605F0F5F90346CB
:10279400002B0ED15E4B1B7819460220FEF772FD0A
:1027A40009220021554805F0F7F9534B00221A700D
:1027B4007FE007F1180309225049184605F0DCF9B7
:1027C4000346002B0ED1534B1B7819460320FEF70A
:1027D40059FD09220021494805F0DEF9464B002243
:1027E4001A7066E007F10C0309224449184605F003
:1027F400C3F90346002B0ED1474B1B78194604201E
:10280400FEF740FD092200213C4805F0C5F93A4B8A
:1028140000221A704DE007F13C030922374918469B
:1028240005F0AAF90346002B0DD1374B1B78184647
:10283400FEF7A0FC09220021304805F0ADF92E4B2B
:1028440000221A7035E007F1300309222B4918469B
:1028540005F092F90346002B0BD1304B05221A7078
:1028640009220021254805F097F9234B00221A700C
:102874001FE03B4609222149184605F07DF903462D
:10288400002B16D101210820FEF7ECFB234B00227C
:102894001A701C4B00221A700D2200211B4805F0EF
:1028A4007BF909220021154805F076F9124B002224
:1028B4001A70114B00221A7007E00F4B00221A7095
:1028C400092200210D4805F067F900BF6437BD46B1
:1028D40090BD00BF300A0020047C0008107C000872
:1028E4001C7C0008287C0008347C0008407C00081C
:1028F4004C7C0008587C0008950800208C080020B7
:1029040088040020760800209B0900207808002015
:1029140087080020880800208908002084000020FF
:1029240080B58CB000AFB14A07F1280392E80300E8
:10293400186004331980AE4A07F1200392E80300BB
:10294400186004331980AB4A07F1180392E80300B6
:10295400186004331980A84A07F1100392E80300B1
:10296400186004331980A54A07F1080392E80300AC
:10297400186004331980A24A3B4692E803001860A9
:10298400043319804FF40040FFF770FC9D4802F0B7
:102994009FFD9D4B1B78002B40F0AC819B4B1B781B
:1029A400002B04D001219A48FEF7ECFAA2E10121A0
:1029B4009848FEF7E7FA9DE1934B01221A70944878
:1029C400FFF70CFC034687F82F3097F82F305D2B68
:1029D4000FD097F82F300A2B0BD08F4B1B785A1C33
:1029E400D1B28D4A117019468C4A97F82F3053543E
:1029F40080E197F82F305D2B40F06F81864B1B7878
:102A0400023B864AD35C6F2B40F0A080824B1B783C
:102A1400013B824AD35C6B2B40F0988007F128037A
:102A240006227E49184605F0A7F80346002B04D178
:102A340000210220FEF716FB7EE007F120030622A8
:102A44007649184605F098F80346002B04D1002176
:102A54000320FEF707FB6FE007F1180306226F4916
:102A6400184605F089F80346002B04D10021042000
:102A7400FEF7F8FA60E007F11003062267491846EA
:102A840005F07AF80346002B04D100210520FEF757
:102A9400E9FA51E007F1080306226049184605F0F7
:102AA4006BF80346002B04D100210620FEF7DAFA66
:102AB40042E03B4606225949184605F05DF80346B4
:102AC400002B39D100210720FEF7CCFA544B062203
:102AD4001A70544B1B78042B13D1534B1B78002BC7
:102AE40003D1524B03221A7026E0514B1B78002B62
:102AF40003D14E4B05221A701EE04C4B01221A7072
:102B04001AE0494B1B78002B03D1484B03221A705F
:102B140012E0484B1B78002B03D1444B04221A705B
:102B24000AE0434B1B78002B03D1404B05221A705B
:102B340002E03E4B01221A704FF4807200213748A4
:102B440005F02AF8344B00221A70D3E0324B1B787C
:102B5400023B324AD35C692B40F0B5802E4B1B7884
:102B6400013B2E4AD35C6C2B40F0AD8007F1280367
:102B740006222A49184604F0FFFF0346002B0AD117
:102B840001210220FEF76EFA254B06221A70274B0C
:102B940006221A708DE007F1200306221F49184609
:102BA40004F0EAFF0346002B0AD101210320FEF7BB
:102BB40059FA1B4B06221A701C4B07221A7078E034
:102BC40007F1180306221549184604F0D5FF0346F9
:102BD400002B31D101210420FEF744FA104B0622C8
:102BE4001A70124B08221A7063E000BF647C00085C
:102BF4006C7C0008747C00087C7C0008847C0008E1
:102C04008C7C0008A009002099090020870000207E
:102C1400B80A0020740A00209809002098080020AF
:102C240084000020860800208708002095000020EA
:102C3400890800208808002007F11003062235497E
:102C4400184604F099FF0346002B0AD10121052000
:102C5400FEF708FA304B06221A70304B09221A701C
:102C640027E007F1080306222A49184604F084FFE6
:102C74000346002B0AD101210620FEF7F3F9264B67
:102C840006221A70254B0A221A7012E03B460622CD
:102C94002049184604F070FF0346002B09D1012196
:102CA4000720FEF7DFF91C4B06221A701B4B0B2280
:102CB4001A704FF480720021164804F06DFF184B0F
:102CC40000221A7016E04FF480720021114804F0BB
:102CD40063FF134B00221A700CE097F82F300A2B75
:102CE40008D14FF4807200210A4804F055FF0C4BC0
:102CF40000221A700B4B9B88002B7FF45DAE4FF4BF
:102D04000040FFF7A1FA084802F052FC00BF303738
:102D1400BD4680BD98080020840000209500002056
:102D24009809002098000020A009002080B483B0F6
:102D340000AF00237B60104B5B6C0F4A43F480436D
:102D440053640D4B5B6C03F480437B607B6800230E
:102D54003B60094B1B6C084A43F080531364064BD9
:102D64001B6C03F080533B603B6800BF0C37BD46CF
:102D74005DF8047B704700BF0038024080B483B024
:102D840000AF7860074B5A697B6813407A689A42AF
:102D94000CBF01230023DBB218460C37BD465DF897
:102DA400047B7047003C014080B483B000AF78607E
:102DB400044A7B68536100BF0C37BD465DF8047B51
:102DC400704700BF003C014080B400AFFEE780B410
:102DD40000AFFEE780B400AFFEE780B400AFFEE7CB
:102DE40080B400AFFEE780B400AF00BFBD465DF81D
:102DF400047B704780B400AF00BFBD465DF8047B20
:102E0400704780B400AF00BFBD465DF8047B7047D7
:102E140080B500AF00F0C0FD00BF80BD80B500AF3D
:102E240000F020F90120FFF7A9FF0346002B02D090
:102E34000120FFF7B9FF00BF80BD000080B500AFDF
:102E4400024802F075FD00BF80BD00BFA00900204C
:102E540080B582B000AF124B00221A70114B0122D0
:102E64001A70114B1B681B6803F02003202B07D139
:102E74000D4B1B685B68DBB219460B48FFF77AF908
:102E840000237B60084B1B681B687B60064B1B6838
:102E94005B687B607B6800BF0837BD4680BD00BFB0
:102EA4008700002088000020740A002080B500AF4D
:102EB400184B1B78002B03D1174B05221A701BE00B
:102EC400164B1B78DBB2002B0BD1144B01221A706A
:102ED400134B1B68DA68124B1B6822F02002DA607D
:102EE4000AE00E4B00221A700D4B1B68DA680C4B7B
:102EF4001B6842F02002DA604FF40040FFF73EFF07
:102F04000346002B03D04FF40040FFF74DFF00BFF2
:102F140080BD00BF9B090020840000209A09002086
:102F2400300A002080B582B000AF134B1B78DBB2AF
:102F3400042B1AD1114B1B681B6803F02003202BB0
:102F440007D10E4B1B685B68DBB219460B48FFF7D1
:102F540011F900237B60094B1B681B687B60074BDE
:102F64001B685B687B607B6802E0044803F01AFC22
:102F74000837BD4680BD00BF84000020300A002011
:102F840080B582B000AF124B01221A70114B00229F
:102F94001A70114B1B681B6803F02003202B07D108
:102FA4000D4B1B685B68DBB219460B48FFF7E2F870
:102FB40000237B60084B1B681B687B60064B1B6807
:102FC4005B687B607B6800BF0837BD4680BD00BF7F
:102FD4008700002088000020B80A002080B483B055
:102FE40000AF786039607B683A689A6100BF0C373B
:102FF400BD465DF8047B704780B483B000AF786051
:1030040039603B681A047B689A6100BF0C37BD467F
:103014005DF8047B7047000080B483B000AF786033
:10302400054B1A6804497B6813430B6000BF0C37D7
:10303400BD465DF8047B7047003C014080B483B01A
:1030440000AF7860064B1A687B68DB430449134081
:103054000B6000BF0C37BD465DF8047B704700BFB2
:10306400003C014080B500AF0121164801F0FCFB93
:103074000346002B14D0144B00221A704FF48051D5
:103084001048FFF7ABFF80211048FFF7B5FF104B46
:103094001B78002B14D04FF40040FFF7CFFF0FE054
:1030A400094B01221A704FF480510648FFF7A4FF20
:1030B40080210648FFF792FF4FF40040FFF7ACFF72
:1030C40000BF80BD000402409B09002000000240B4
:1030D4007608002080B400AF064BD3F88830054A48
:1030E40043F47003C2F8883000BFBD465DF8047B2A
:1030F400704700BF00ED00E080B483B000AF78609B
:1031040039607B683A689A6100BF0C37BD465DF848
:10311400047B704780B483B000AF786039603B684B
:103124001A047B689A6100BF0C37BD465DF8047BC6
:103134007047000080B586B000AF07F10803002295
:103144001A605A609A60DA603B4600221A605A603C
:103154001E4B4FF080421A601C4B40F6C4125A605A
:103164001A4B00229A60194B40F6CA02DA60174BD8
:1031740000221A61154B00229A61144802F058F992
:103184000346002B01D0FDF7F7FE4FF48053BB60DC
:1031940007F1080319460D4802F094FD0346002B7D
:1031A40001D0FDF7E9FE00233B6000237B603B4632
:1031B4001946064803F086F90346002B01D0FDF7B3
:1031C400DBFE00BF1837BD4680BD00BFA00900204C
:1031D40080B58EB000AF07F1280300221A605A6050
:1031E4009A60DA6007F1200300221A605A603B1DDE
:1031F40000221A605A609A60DA601A615A619A6110
:103204002C4B2D4A1A602B4B2C225A60294B00223E
:103214009A60284B40F2F312DA60264B00221A61BE
:10322400244B00229A61234802F002F90346002B42
:1032340001D0FDF7A1FE4FF48053BB6207F12803D0
:1032440019461C4802F03EFD0346002B01D0FDF751
:1032540093FE184802F0DBF90346002B01D0FDF77A
:103264008BFE00233B6200237B6207F12003194697
:10327400104803F027F90346002B01D0FDF77CFE2C
:1032840060237B60F923BB600023FB6000237B6128
:103294003B1D08221946074802F052FC0346002B46
:1032A40001D0FDF769FE034800F064F800BF383729
:1032B400BD4680BDE80900200004004080B58AB006
:1032C40000AF786007F1140300221A605A609A6014
:1032D400DA601A617B681B68B3F1804F2CD100233C
:1032E4003B61214B1B6C204A43F0010313641E4BCA
:1032F4001B6C03F001033B613B690023FB601A4B29
:103304001B6B194A43F002031363174B1B6B03F047
:103314000203FB60FB6804237B610223BB6100237F
:10332400FB6100233B6201237B6207F1140319460E
:103334000E4801F005F912E07B681B680C4A9342C1
:103344000DD10023BB60084B1B6C074A43F00203FA
:103354001364054B1B6C03F00203BB60BB6800BF26
:103364002837BD4680BD00BF00380240000402403B
:103374000004004080B588B000AF786007F10C030A
:1033840000221A605A609A60DA601A617B681B68CE
:10339400124A93421ED10023BB60114B1B6B104A8F
:1033A40043F0040313630E4B1B6B03F00403BB6075
:1033B400BB684FF48073FB6002233B6100237B6195
:1033C4000023BB610223FB6107F10C031946054886
:1033D40001F0B6F800BF2037BD4680BD00040040B0
:1033E400003802400008024080B582B000AF786027
:1033F4007B681B68B3F1804F40F0DE80714B1B7813
:10340400DBB20B2B00F2D98001A252F823F000BFEB
:1034140045340008673400087F34000899340008F4
:10342400BB340008DF340008053500081F350008E8
:103434003735000851350008773500089B350008FA
:1034440004216148FFF758FE4FF400515E48FFF72E
:1034540061FE01215C48FFF74FFE5A4B01221A70AE
:10346400ABE001215848FFF755FE02215648FFF70B
:1034740043FE544B02221A709FE002215248FFF788
:1034840049FE4FF480715148FFF736FE4D4B03223D
:103494001A7092E004214C48FFF73CFE20214B486F
:1034A400FFF72AFE4FF480714848FFF725FE454B8D
:1034B40004221A7081E020214448FFF72BFE4FF4C8
:1034C40000614148FFF718FE4FF480713F48FFF751
:1034D40013FE3C4B05221A706FE04FF400613A482A
:1034E400FFF718FE4FF480613748FFF705FE4FF4ED
:1034F40080713648FFF700FE324B06221A705CE0FA
:103504004FF480713148FFF705FE40212F48FFF743
:10351400F3FD2C4B07221A704FE040212B48FFF794
:10352400F9FD80212948FFF7E7FD264B08221A7090
:1035340043E080212548FFF7EDFD4FF40051224878
:10354400FFF7DAFD1F4B09221A7036E04FF4806151
:103554001D48FFF7DFFD4FF400611B48FFF7CCFD6A
:103564004FF400511848FFF7C7FD164B0A221A7092
:1035740023E04FF400611448FFF7CCFD20211348E9
:10358400FFF7BAFD4FF400510F48FFF7B5FD0D4B9F
:103594000B221A7011E020210C48FFF7BBFD042117
:1035A4000948FFF7A9FD4FF400510748FFF7A4FDB0
:1035B400044B00221A7000E000BF00BF0837BD466C
:1035C40080BD00BF9C0900200008024000040240A6
:1035D40080B500AF114B124A1A60104B4FF4E13220
:1035E4005A600E4B00229A600C4B0022DA600B4B9F
:1035F40000221A61094B0C225A61084B00229A617D
:10360400064B0022DA61054802F0ECFF0346002B6A
:1036140001D0FDF7B1FC00BF80BD00BF300A00201F
:103624000050004080B500AF114B124A1A60104B95
:103634004FF461225A600E4B00229A600C4B002218
:10364400DA600B4B00221A61094B0C225A61084BB9
:1036540000229A61064B0022DA61054802F0C2FF9B
:103664000346002B01D0FDF787FC00BF80BD00BFDF
:10367400740A00200044004080B500AF114B124A88
:103684001A60104B4FF461225A600E4B00229A606C
:103694000C4B0022DA600B4B00221A61094B0C22FE
:1036A4005A61084B00229A61064B0022DA610548F0
:1036B40002F098FF0346002B01D0FDF75DFC00BF2C
:1036C40080BD00BFB80A00200014014080B58EB050
:1036D40000AF786007F1240300221A605A609A60F0
:1036E400DA601A617B681B68664A934253D10023EF
:1036F4003B62654B1B6C644A43F480131364624B56
:103704001B6C03F480133B623B6A0023FB615E4B3A
:103714001B6B5D4A43F0040313635B4B1B6B03F0A9
:103724000403FB61FB690023BB61574B1B6B564AC7
:1037340043F008031363544B1B6B03F00803BB6192
:10374400BB694FF480537B620223BB620023FB629C
:1037540003233B6308237B6307F1240319464B4887
:1037640000F0EEFE04237B620223BB620023FB62B3
:1037740003233B6308237B6307F12403194644486E
:1037840000F0DEFE00220021352000F010FE35207E
:1037940000F029FE72E07B681B683E4A934234D1F4
:1037A40000237B61384B1B6C374A43F400331364AA
:1037B400354B1B6C03F400337B617B6900233B6155
:1037C400314B1B6B304A43F0010313632E4B1B6BCD
:1037D40003F001033B613B690C237B620223BB6260
:1037E4000023FB6203233B6307237B6307F124036A
:1037F4001946294800F0A4FE00220021262000F0EA
:10380400D6FD262000F0EFFD38E07B681B68234AD4
:10381400934233D10023FB601B4B5B6C1A4A43F089
:1038240020035364184B5B6C03F02003FB60FB68BC
:103834000023BB60144B1B6B134A43F00403136354
:10384400114B1B6B03F00403BB60BB68C0237B629A
:103854000223BB620023FB6203233B6308237B63D5
:1038640007F124031946094800F06AFE00220021EA
:10387400472000F09CFD472000F0B5FD00BF38371D
:10388400BD4680BD005000400038024000080240A0
:10389400000C0240004400400000024000140140BB
:1038A400DFF834D00D480E490E4A002302E0D45804
:1038B400C4500433C4188C42F9D30B4A0B4C002374
:1038C40001E013600432A242FBD3FFF703FC04F0CF
:1038D4002FF9FDF71BFA70470000022000000020BA
:1038E40014000020BC7C000814000020000B002001
:1038F400FEE7000080B500AF0E4B1B680D4A43F491
:10390400007313600B4B1B680A4A43F48063136013
:10391400084B1B68074A43F480731360032000F0CC
:103924003BFD0F2000F008F8FFF700FA00231846CB
:1039340080BD00BF003C024080B582B000AF78601B
:10394400124B1A68124B1B7819464FF47A73B3FB67
:10395400F1F3B2FBF3F3184600F053FD0346002BDA
:1039640001D001230EE07B680F2B0AD8002279686E
:103974004FF0FF3000F01BFD064A7B681360002304
:1039840000E0012318460837BD4680BD080000202A
:10399400100000200C00002080B400AF064B1B7800
:1039A4001A46064B1B681344044A136000BFBD4605
:1039B4005DF8047B704700BF10000020FC0A002063
:1039C40080B400AF034B1B681846BD465DF8047B0A
:1039D400704700BFFC0A002080B584B000AF786057
:1039E4000023FB737B68002B01D1012333E07B6848
:1039F4001B6C002B09D17868FCF7D6FD7B6800228C
:103A04005A647B68002283F83C207B681B6C03F0BB
:103A14001003002B18D17B681B6C23F4885323F00C
:103A2400020343F002027B681A64786800F0E8FA43
:103A34007B6800225A647B681B6C23F0030343F009
:103A440001027B681A6401E00123FB737B68002296
:103A540083F83C20FB7B18461037BD4680BD000030
:103A640080B485B000AF78600023BB607B6893F8B6
:103A74003C30012B01D10223B2E07B68012283F8A0
:103A84003C207B681B689B6803F00103012B18D062
:103A94007B681B689A687B681B6842F001029A6025
:103AA400524B1B68524AA2FB03239A0C13465B0039
:103AB4001344BB6002E0BB68013BBB60BB68002BE6
:103AC400F9D17B681B689B6803F00103012B7AD151
:103AD4007B681B6C23F4E06323F0010343F48072DE
:103AE4007B681A647B681B685B6803F48063002B43
:103AF40007D07B681B6C23F4405343F480527B68EB
:103B04001A647B681B6C03F48053B3F5805F06D1A1
:103B14007B685B6C23F006027B685A6402E07B6876
:103B240000225A647B68002283F83C20314BFB60FE
:103B34007B681B686FF022021A60FB685B6803F005
:103B44001F03002B2AD17B681B682B4A934215D094
:103B54007B681B68294A934205D1264B5B6803F0B6
:103B64001F03002B0AD07B681B68254A934236D179
:103B7400204B5B6803F01003002B30D17B681B687B
:103B84009B6803F04053002B29D17B681B689A681B
:103B94007B681B6842F080429A6020E07B681B6867
:103BA400154A93421BD17B681B689B6803F0405302
:103BB400002B14D17B681B689A687B681B6842F0F1
:103BC40080429A600BE07B681B6C43F010027B68B8
:103BD4001A647B685B6C43F001027B685A640023BF
:103BE40018461437BD465DF8047B70470800002072
:103BF40083DE1B43002301400020014000210140DB
:103C04000022014080B483B000AF78607B6893F8F1
:103C14003C30012B01D1022321E07B68012283F88F
:103C24003C207B681B689A687B681B6822F0010251
:103C34009A607B681B689B6803F00103002B09D121
:103C44007B681B6C23F4885323F0010343F00102C7
:103C54007B681A647B68002283F83C2000231846A2
:103C64000C37BD465DF8047B704780B584B000AF67
:103C7400786039600023FB607B681B689B6803F4F1
:103C84008063B3F5806F13D17B681B689B6803F472
:103C94008073B3F5807F0BD17B681B6C43F02002EB
:103CA4007B681A647B68002283F83C20012363E06C
:103CB400FFF786FEF86021E03B68B3F1FF3F1DD0BB
:103CC4003B68002B07D0FFF77BFE0246FB68D31A44
:103CD4003A689A4212D27B681B681B6803F002039D
:103CE400022B0BD07B681B6C43F004027B681A64C4
:103CF4007B68002283F83C2003233DE07B681B683B
:103D04001B6803F00203022BD6D17B681B686FF09B
:103D140012021A607B681B6C43F400727B681A649D
:103D24007B681B689B6803F04053002B23D17B689E
:103D34001B7E002B1FD17B681B68DB6A03F47003B6
:103D4400002B06D07B681B689B6803F48063002B00
:103D540011D17B681B6C23F480727B681A647B68C6
:103D64001B6C03F48053002B05D17B681B6C43F060
:103D740001027B681A64002318461037BD4680BDD3
:103D840080B483B000AF78607B681B68DB6C184636
:103D94000C37BD465DF8047B7047000080B485B0E5
:103DA40000AF786039600023BB607B6893F83C30D7
:103DB400012B01D1022313E17B68012283F83C200B
:103DC4003B681B68092B25D97B681B68D9683B684D
:103DD4001B689BB21A4613465B0013441E3B072222
:103DE40002FA03F3DA437B681B680A40DA607B68F3
:103DF4001B68D9683B689A683B681B689BB2184685
:103E040003465B0003441E3B9A407B681B680A43DD
:103E1400DA6022E07B681B6819693B681B689BB207
:103E24001A4613465B001344072202FA03F3DA43EB
:103E34007B681B680A401A617B681B6819693B68C8
:103E44009A683B681B689BB2184603465B000344B0
:103E54009A407B681B680A431A613B685B68062BBF
:103E640024D87B681B68596B3B685A6813469B00CF
:103E74001344053B1F2202FA03F3DA437B681B68F1
:103E84000A405A637B681B68596B3B681B689BB28A
:103E940018463B685A6813469B001344053B00FAD6
:103EA40003F27B681B680A435A634CE03B685B6817
:103EB4000C2B24D87B681B68196B3B685A68134623
:103EC4009B001344233B1F2202FA03F3DA437B686B
:103ED4001B680A401A637B681B68196B3B681B6884
:103EE4009BB218463B685A6813469B001344233B15
:103EF40000FA03F27B681B680A431A6323E07B68B9
:103F04001B68D96A3B685A6813469B001344413BBB
:103F14001F2202FA03F3DA437B681B680A40DA6261
:103F24007B681B68D96A3B681B689BB218463B6870
:103F34005A6813469B001344413B00FA03F27B6822
:103F44001B680A43DA62294BFB607B681B68284ABA
:103F540093420FD13B681B68122B0BD1FB685B6843
:103F640023F40002FB685A60FB685B6843F4800238
:103F7400FB685A607B681B681D4A93422BD13B68DF
:103F84001B681C4A934203D03B681B68112B22D147
:103F9400FB685B6823F48002FB685A60FB685B681B
:103FA40043F40002FB685A603B681B68114A934261
:103FB40011D1114B1B68114AA2FB03239A0C13461F
:103FC4009B0013445B00BB6002E0BB68013BBB6029
:103FD400BB68002BF9D17B68002283F83C200023C6
:103FE40018461437BD465DF8047B70470023014032
:103FF40000200140120000100800002083DE1B4353
:1040040080B485B000AF7860794BFB60FB685B6877
:1040140023F44032FB685A60FB685A687B685B682B
:104024001A43FB685A607B681B685A687B681B6884
:1040340022F480725A607B681B6859687B681B692C
:104044001A027B681B680A435A607B681B685A68BB
:104054007B681B6822F040725A607B681B68596851
:104064007B689A687B681B680A435A607B681B6894
:104074009A687B681B6822F400629A607B681B68FC
:1040840099687B68DA687B681B680A439A607B6876
:104094009B6A584A934222D07B681B689A687B6863
:1040A4001B6822F070629A607B681B6899687B6861
:1040B4009A6A7B681B680A439A607B681B689A68E3
:1040C4007B681B6822F040529A607B681B68996881
:1040D4007B68DA6A7B681B680A439A600FE07B6836
:1040E4001B689A687B681B6822F070629A607B6820
:1040F4001B689A687B681B6822F040529A607B6850
:104104001B689A687B681B6822F002029A607B68CD
:104114001B6899687B681B7E5A007B681B680A438E
:104124009A607B6893F82030002B1BD07B681B6857
:104134005A687B681B6842F400625A607B681B689B
:104144005A687B681B6822F460425A607B681B686B
:1041540059687B685B6A013B5A037B681B680A43A6
:104164005A6007E07B681B685A687B681B6822F406
:1041740000625A607B681B68DA6A7B681B6822F4F9
:104184007002DA627B681B68D96A7B68DB69013B71
:104194001A057B681B680A43DA627B681B689A68A5
:1041A4007B681B6822F400729A607B681B689968BC
:1041B4007B6893F830305A027B681B680A439A6024
:1041C4007B681B689A687B681B6822F480629A602B
:1041D4007B681B6899687B685B699A027B681B68CB
:1041E4000A439A6000BF1437BD465DF8047B7047EC
:1041F400002301400100000F80B485B000AF786057
:104204007B6803F00703FB600C4BDB68BB60BA6898
:104214004FF6FF031340BB60FB681A02BB681343ED
:1042240043F0BF6343F40033BB60044ABB68D3600C
:1042340000BF1437BD465DF8047B704700ED00E015
:1042440080B400AF044BDB681B0A03F00703184675
:10425400BD465DF8047B704700ED00E080B483B098
:1042640000AF0346FB7197F90730002B0BDBFB799A
:1042740003F01F02074997F907305B09012000FA90
:1042840002F241F8232000BF0C37BD465DF8047BE1
:10429400704700BF00E100E080B483B000AF034684
:1042A4003960FB7197F90730002B0ADB3B68DAB2FF
:1042B4000C4997F907301201D2B20B4483F800235A
:1042C4000AE03B68DAB20849FB7903F00F03043BC8
:1042D4001201D2B20B441A7600BF0C37BD465DF80A
:1042E400047B704700E100E000ED00E080B489B099
:1042F40000AFF860B9607A60FB6803F00703FB6104
:10430400FB69C3F10703042B28BF0423BB61FB69CA
:104314000433062B02D9FB69033B00E000237B61D5
:104324004FF0FF32BB6902FA03F3DA43BB681A4069
:104334007B699A404FF0FF317B6901FA03F3D9435B
:104344007B680B40134318462437BD465DF8047B55
:104354007047000080B582B000AF78607B68013B95
:10436400B3F1807F01D301230FE00A4A7B68013B4C
:1043740053600F214FF0FF30FFF78EFF054B0022F3
:104384009A60044B07221A60002318460837BD467A
:1043940080BD00BF10E000E080B582B000AF78605F
:1043A4007868FFF729FF00BF0837BD4680BD80B598
:1043B40086B000AF0346B9607A60FB7300237B616B
:1043C400FFF73EFF78617A68B9687869FFF78EFF76
:1043D400024697F90F3011461846FFF75DFF00BFFC
:1043E4001837BD4680BD80B582B000AF0346FB716F
:1043F40097F907301846FFF731FF00BF0837BD466D
:1044040080BD80B582B000AF78607868FFF7A2FF06
:10441400034618460837BD4680BD80B584B000AF5A
:1044240078607B689B6DFB60FFF7CAFAB8607B68B5
:1044340093F83530DBB2022B08D07B6880225A65B2
:104444007B68002283F83420012352E07B681B68D8
:104454001A687B681B6822F016021A607B681B6866
:104464005A697B681B6822F080025A617B681B6C66
:10447400002B03D17B689B6C002B07D07B681B68E7
:104484001A687B681B6822F008021A607B681B6844
:104494001A687B681B6822F001021A6013E0FFF7B8
:1044A4008FFA0246BB68D31A052B0CD97B682022ED
:1044B4005A657B68032283F835207B68002283F8E1
:1044C4003420032315E07B681B681B6803F0010399
:1044D400002BE4D17B68DB6D3F229A40FB689A6035
:1044E4007B68012283F835207B68002283F834201E
:1044F400002318461037BD4680BD80B483B000AF9A
:1045040078607B6893F83530DBB2022B04D07B688B
:1045140080225A6501230CE07B68052283F835204C
:104524007B681B681A687B681B6822F001021A60AA
:10453400002318460C37BD465DF8047B7047000025
:1045440080B489B000AF7860396000237B610023B8
:104554003B610023BB610023FB6165E10122FB6930
:1045640002FA03F37B613B681B687A6913403B6181
:104574003A697B699A4240F054813B685B6803F076
:104584000303012B05D03B685B6803F00303022B94
:1045940030D17B689B68BB61FB695B00032202FA34
:1045A40003F3DB43BA691340BB613B68DA68FB6918
:1045B4005B0002FA03F3BA691343BB617B68BA690F
:1045C4009A607B685B68BB610122FB6902FA03F3B2
:1045D400DB43BA691340BB613B685B681B0903F0AA
:1045E4000102FB6902FA03F3BA691343BB617B68F6
:1045F400BA695A603B685B6803F00303032B17D066
:104604007B68DB68BB61FB695B00032202FA03F38E
:10461400DB43BA691340BB613B689A68FB695B0082
:1046240002FA03F3BA691343BB617B68BA69DA60BF
:104634003B685B6803F00303022B23D1FB69DA08B0
:104644007B68083253F82230BB61FB6903F007032F
:104654009B000F2202FA03F3DB43BA691340BB61E8
:104664003B681A69FB6903F007039B0002FA03F332
:10467400BA691343BB61FB69DA087B680832B9691C
:1046840043F822107B681B68BB61FB695B00032253
:1046940002FA03F3DB43BA691340BB613B685B680E
:1046A40003F00302FB695B0002FA03F3BA691343E4
:1046B400BB617B68BA691A603B685B6803F440338A
:1046C400002B00F0AE800023FB605D4B5B6C5C4A0A
:1046D40043F4804353645A4B5B6C03F48043FB60A4
:1046E400FB68584AFB699B08023352F82330BB61CC
:1046F400FB6903F003039B000F2202FA03F3DB437D
:10470400BA691340BB617B684F4A934225D07B68EA
:104714004E4A93421FD07B684D4A934219D07B681E
:104724004C4A934213D07B684B4A93420DD07B682A
:104734004A4A934207D07B68494A934201D10623EF
:104744000CE007230AE0052308E0042306E0032322
:1047540004E0022302E0012300E00023FA6902F0EE
:10476400030292009340BA691343BB613549FB6964
:104774009B080233BA6941F823203A4B9B68BB611A
:104784003B69DB43BA691340BB613B685B6803F474
:104794008013002B03D0BA693B691343BB61314AD0
:1047A400BB6993602F4BDB68BB613B69DB43BA6930
:1047B4001340BB613B685B6803F40013002B03D018
:1047C400BA693B691343BB61264ABB69D360254B75
:1047D4005B68BB613B69DB43BA691340BB613B68FF
:1047E4005B6803F40033002B03D0BA693B691343BD
:1047F400BB611C4ABB6953601A4B1B68BB613B69B4
:10480400DB43BA691340BB613B685B6803F48033E4
:10481400002B03D0BA693B691343BB61114ABB69DE
:104824001360FB690133FB61FB690F2B7FF696AEC6
:1048340000BF00BF2437BD465DF8047B704700BF4E
:1048440000380240003801400000024000040240E9
:1048540000080240000C0240001002400014024014
:1048640000180240003C014080B485B000AF78607D
:104874000B467B807B681A697B881340002B02D02F
:104884000123FB7301E00023FB73FB7B1846143701
:10489400BD465DF8047B704780B485B000AF786096
:1048A4000B467B807B685B69FB607A88FB681340FE
:1048B4001A04FB68D9437B880B401A437B689A61CE
:1048C40000BF1437BD465DF8047B704780B582B0E5
:1048D40000AF00237B6000233B60204B1B6C1F4A0E
:1048E40043F0805313641D4B1B6C03F080533B60F7
:1048F4003B681B4B01221A60FFF762F8786009E0FD
:10490400FFF75EF802467B68D31AB3F57A7F01D9C4
:1049140003231FE0134B5B6803F48033B3F5803F3C
:10492400EED1114B01221A60FFF74AF8786009E0D2
:10493400FFF746F802467B68D31AB3F57A7F01D9AC
:10494400032307E0074B5B6803F40033B3F5003F30
:10495400EED1002318460837BD4680BD003802401A
:1049640040000E420070004044000E4280B584B006
:1049740000AF786039607B68002B01D10123CCE063
:10498400684B1B6803F00F033A689A420CD9654BD5
:104994003A68D2B21A70634B1B6803F00F033A688B
:1049A4009A4201D00123B8E07B681B6803F002033C
:1049B400002B20D07B681B6803F00403002B05D078
:1049C400594B9B68584A43F4E05393607B681B68D7
:1049D40003F00803002B05D0534B9B68524A43F461
:1049E40060439360504B9B6823F0F0027B689B68A4
:1049F4004D4913438B607B681B6803F00103002B54
:104A040044D07B685B68012B07D1474B1B6803F4D8
:104A14000033002B19D101237FE07B685B68022BF4
:104A240003D07B685B68032B07D13F4B1B6803F003
:104A34000073002B09D101236FE03B4B1B6803F08B
:104A44000203002B01D1012367E0374B9B6823F05D
:104A540003027B685B68344913438B60FEF7B0FF45
:104A6400F8600AE0FEF7ACFF0246FB68D31A41F295
:104A74008832934201D903234FE02B4B9B6803F008
:104A84000C027B685B689B009A42EBD1254B1B6848
:104A940003F00F033A689A420CD2224B3A68D2B21E
:104AA4001A70204B1B6803F00F033A689A4201D036
:104AB400012332E07B681B6803F00403002B08D059
:104AC400194B9B6823F4E0527B68DB681649134357
:104AD4008B607B681B6803F00803002B09D0124B22
:104AE4009B6823F460427B681B69DB000E49134317
:104AF4008B6000F055F802460B4B9B681B0903F0D2
:104B04000F030A49CB5C22FA03F3094A1360094BE9
:104B14001B681846FEF710FF002318461037BD46E1
:104B240080BD00BF003C024000380240947C000875
:104B3400080000200C00002080B400AF034B1B6869
:104B44001846BD465DF8047B704700BF080000208E
:104B540080B500AFFFF7F0FF0246054B9B689B0A48
:104B640003F007030349CB5C22FA03F3184680BD24
:104B740000380240A47C000880B500AFFFF7DCFFDA
:104B84000246054B9B685B0B03F007030349CB5CB0
:104B940022FA03F3184680BD00380240A47C0008C2
:104BA4002DE9B04FA6B000AF0023C7F88C30002326
:104BB400C7F894300023C7F888300023C7F884303E
:104BC4000023C7F89030C84B9B6803F00C030C2BF0
:104BD40000F27E8101A252F823F000BF154C0008B8
:104BE400D54E0008D54E0008D54E00081D4C0008CF
:104BF400D54E0008D54E0008D54E0008254C0008B7
:104C0400D54E0008D54E0008D54E00088F4D00083B
:104C1400B64BC7F890305FE1B54BC7F890305BE115
:104C2400B14B5B6803F03F03C7F88C30AE4B5B6855
:104C340003F48003002B31D0AB4B5B689B0900224B
:104C4400BB66FA66BB6EC3F308033B6600237B6650
:104C5400A74BD7E918452A4603FB02F20023214655
:104C640001FB03F31344A24A2146A1FB0212FA6793
:104C74000A46BA67FA6F1344FB67D7F88C300022F0
:104C8400BB65FA65D7E91623D7E91E01FBF7B8FA25
:104C940002460B461346C7F8943064E0924B5B68B7
:104CA4009B0900223B657A653B6DC3F30803BB6433
:104CB4000023FB64D7E9124522462B464FF000003F
:104CC4004FF00001590141EAD261500102460B46FE
:104CD4002146511A3961294663EB01037B614FF088
:104CE40000024FF00003D7E904AB59468B0151464B
:104CF40043EA916351468A015146B2EB0108594691
:104D040063EB01094FF000024FF000034FEAC903BF
:104D140043EA58734FEAC80290469946234618EB73
:104D24000303BB602B4649EB0303FB604FF0000217
:104D34004FF00003D7E9024529468B02214643EA96
:104D4400915321468A0210461946D7F88C30002226
:104D54003B647A64D7E91023FBF752FA02460B4608
:104D64001346C7F89430604B5B681B0C03F00303D5
:104D740001335B00C7F88830D7F89420D7F888301F
:104D8400B2FBF3F3C7F89030A6E0574B5B6803F02F
:104D94003F03C7F88C30544B5B6803F48003002B4B
:104DA4002AD0514B5B689B090022BB63FA63BB6B3F
:104DB400C3F3080000214E4B03FB01F2002300FB68
:104DC40003F313444A4AA0FB02127A670A463A677D
:104DD4007A6F13447B67D7F88C3000223B637A6385
:104DE400D7E90C23D7E91C01FBF70AFA02460B4664
:104DF4001346C7F894305BE03B4B5B689B09002289
:104E0400BB62FA62BB6AC3F308033B6200237B62A2
:104E1400D7E9088942464B464FF000004FF00001A5
:104E2400590141EAD261500102460B464146B2EBB8
:104E3400010A494663EB010B4FF000024FF00003F7
:104E44004FEA8B1343EA9A634FEA8A12B2EB0A04DD
:104E540063EB0B054FF000024FF00003EB0043EA55
:104E64005473E20014461D464346E3183B604B4628
:104E740045EB03037B604FF000024FF00003D7E9DA
:104E8400004529468B02214643EA915321468A0272
:104E940010461946D7F88C300022BB61FA61D7E975
:104EA4000623FBF7ADF902460B461346C7F89430C8
:104EB4000D4B5B681B0F03F00703C7F88430D7F86A
:104EC4009420D7F88430B2FBF3F3C7F8903003E0B2
:104ED400064BC7F8903000BFD7F890301846983783
:104EE400BD46BDE8B08F00BF003802400024F40086
:104EF40000366E0180B586B000AF78607B68002B09
:104F040001D101238DE27B681B6803F00103002BB0
:104F140000F08380944B9B6803F00C03042B19D09E
:104F2400914B9B6803F00C03082B06D18E4B5B68F6
:104F340003F48003B3F5800F0CD08B4B9B6803F014
:104F44000C030C2B12D1884B5B6803F48003B3F57C
:104F5400800F0BD1844B1B6803F40033002B5BD010
:104F64007B685B68002B57D101235AE27B685B683E
:104F7400B3F5803F06D17C4B1B687B4A43F48033F6
:104F840013601DE07B685B68B3F5A02F0CD1764BF2
:104F94001B68754A43F480231360734B1B68724A81
:104FA40043F4803313600BE06F4B1B686E4A23F4A9
:104FB400803313606C4B1B686B4A23F480231360AB
:104FC4007B685B68002B13D0FEF7FAFC386108E0BD
:104FD400FEF7F6FC02463B69D31A642B01D903237E
:104FE4001FE2614B1B6803F40033002BF0D014E084
:104FF400FEF7E6FC386108E0FEF7E2FC02463B6996
:10500400D31A642B01D903230BE2574B1B6803F417
:105014000033002BF0D100E000BF7B681B6803F075
:105024000203002B6FD0504B9B6803F00C03002B42
:1050340017D04D4B9B6803F00C03082B05D14A4B4A
:105044005B6803F48003002B0BD0474B9B6803F091
:105054000C030C2B1CD1444B5B6803F48003002B22
:1050640016D1414B1B6803F00203002B05D07B686B
:10507400DB68012B01D00123D3E13B4B1B6823F0F8
:10508400F8027B681B69DB00374913430B603AE085
:105094007B68DB68002B20D0344B01221A60FEF7BA
:1050A4008FFC386108E0FEF78BFC02463B69D31A9B
:1050B400022B01D90323B4E12B4B1B6803F0020339
:1050C400002BF0D0284B1B6823F0F8027B681B6987
:1050D400DB00254913430B6015E0244B00221A60C2
:1050E400FEF76EFC386108E0FEF76AFC02463B6995
:1050F400D31A022B01D9032393E11B4B1B6803F042
:105104000203002BF0D17B681B6803F00803002B1B
:1051140036D07B685B69002B16D0154B01221A60D0
:10512400FEF74EFC386108E0FEF74AFC02463B6994
:10513400D31A022B01D9032373E10B4B5B6F03F0EA
:105144000203002BF0D01BE0094B00221A60FEF78B
:1051540037FC38610EE0FEF733FC02463B69D31A94
:10516400022B07D903235CE10038024000004742C8
:10517400800E47428A4B5B6F03F00203002BEAD197
:105184007B681B6803F00403002B00F09780002366
:10519400FB75834B1B6C03F08053002B0FD1002352
:1051A400BB607F4B1B6C7E4A43F0805313647C4B83
:1051B4001B6C03F08053BB60BB680123FB75794B08
:1051C4001B6803F48073002B18D1764B1B68754A57
:1051D40043F480731360FEF7F3FB386108E0FEF7D5
:1051E400EFFB02463B69D31A022B01D9032318E1D2
:1051F4006C4B1B6803F48073002BF0D07B689B68B6
:10520400012B06D1664B1B6F654A43F001031367FC
:105214001CE07B689B68052B0CD1614B1B6F604ABB
:1052240043F0040313675E4B1B6F5D4A43F00103B5
:1052340013670BE05A4B1B6F594A23F001031367A2
:10524400574B1B6F564A23F0040313677B689B6814
:10525400002B15D0FEF7B4FB38610AE0FEF7B0FB73
:1052640002463B69D31A41F28832934201D903239F
:10527400D7E04B4B1B6F03F00203002BEED014E07E
:10528400FEF79EFB38610AE0FEF79AFB02463B6993
:10529400D31A41F28832934201D90323C1E0404B2F
:1052A4001B6F03F00203002BEED1FB7D012B05D114
:1052B4003B4B1B6C3A4A23F0805313647B689B6915
:1052C400002B00F0AD80364B9B6803F00C03082BD9
:1052D40060D07B689B69022B45D1334B00221A6056
:1052E400FEF76EFB386108E0FEF76AFB02463B6995
:1052F400D31A022B01D9032393E0294B1B6803F033
:105304000073002BF0D17B68DA697B681B6A1A434F
:105314007B685B6A9B011A437B689B6A5B08013B61
:105324001B041A437B68DB6A1B061A437B681B6BEE
:105334001B071B4913434B601B4B01221A60FEF7EA
:105344003FFB386108E0FEF73BFB02463B69D31A9A
:10535400022B01D9032364E0114B1B6803F0007393
:10536400002BF0D05CE0104B00221A60FEF728FB03
:10537400386108E0FEF724FB02463B69D31A022B8E
:1053840001D903234DE0064B1B6803F00073002B87
:10539400F0D145E07B689B69012B07D1012340E0F4
:1053A4000038024000700040600047421F4B5B68B9
:1053B400FB607B689B69012B30D0FB6803F480029F
:1053C4007B68DB699A4229D1FB6803F03F027B6862
:1053D4001B6A9A4222D1FA6847F6C07313407A686E
:1053E400526A9201934219D1FB6803F440327B68FC
:1053F4009B6A5B08013B1B049A420FD1FB6803F0D4
:1054040070627B68DB6A1B069A4207D1FB6803F073
:10541400E0427B681B6B1B079A4201D0012300E02A
:10542400002318461837BD4680BD00BF003802402F
:1054340080B582B000AF78607B68002B01D1012376
:1054440041E07B6893F83D30DBB2002B06D17B68EA
:10545400002283F83C207868FDF730FF7B68022245
:1054640083F83D207B681A687B680433194610462C
:1054740000F018FD7B68012283F846207B68012236
:1054840083F83E207B68012283F83F207B68012259
:1054940083F840207B68012283F841207B68012245
:1054A40083F842207B68012283F843207B68012231
:1054B40083F844207B68012283F845207B6801221D
:1054C40083F83D20002318460837BD4680BD000000
:1054D40080B485B000AF78607B6893F83D30DBB270
:1054E400012B01D001234EE07B68022283F83D208A
:1054F4007B681B68DA687B681B6842F00102DA602B
:105504007B681B68234A934222D07B681B68B3F1F3
:10551400804F1DD07B681B681F4A934218D07B685C
:105524001B681E4A934213D07B681B681C4A934233
:105534000ED07B681B681B4A934209D07B681B68AA
:10554400194A934204D07B681B68184A934211D1CC
:105554007B681B689B6803F00703FB60FB68062BF2
:1055640010D07B681B681A687B681B6842F00102D4
:105574001A6007E07B681B681A687B681B6842F046
:1055840001021A60002318461437BD465DF8047BF7
:10559400704700BF000001400004004000080040C4
:1055A400000C00400004014000400140001800408D
:1055B40080B483B000AF78607B681B68DA687B686E
:1055C4001B6822F00102DA607B681B681A6A41F2E8
:1055D40011131340002B0FD17B681B681A6A40F229
:1055E40044431340002B07D17B681B681A687B680F
:1055F4001B6822F001021A607B68012283F83D20B7
:10560400002318460C37BD465DF8047B704780B50F
:1056140082B000AF78607B68002B01D1012341E0A8
:105624007B6893F83D30DBB2002B06D17B68002207
:1056340083F83C20786800F039F87B68022283F80C
:105644003D207B681A687B6804331946104600F0D5
:1056540029FC7B68012283F846207B68012283F8B9
:105664003E207B68012283F83F207B68012283F877
:1056740040207B68012283F841207B68012283F863
:1056840042207B68012283F843207B68012283F84F
:1056940044207B68012283F845207B68012283F83B
:1056A4003D20002318460837BD4680BD80B483B032
:1056B40000AF786000BF0C37BD465DF8047B7047CF
:1056C40080B584B000AF786039603B68002B09D1A5
:1056D4007B6893F83E30DBB2012B14BF0123002317
:1056E400DBB222E03B68042B09D17B6893F83F309E
:1056F400DBB2012B14BF01230023DBB215E03B68AE
:10570400082B09D17B6893F84030DBB2012B14BF1E
:1057140001230023DBB208E07B6893F84130DBB25D
:10572400012B14BF01230023DBB2002B01D0012382
:105734007CE03B68002B04D17B68022283F83E2086
:1057440013E03B68042B04D17B68022283F83F20DA
:105754000BE03B68082B04D17B68022283F84020CD
:1057640003E07B68022283F841207B681B680122E6
:105774003968184600F080FE7B681B682D4A934206
:1057840004D07B681B682C4A934201D1012300E0BA
:105794000023002B07D07B681B685A6C7B681B684E
:1057A40042F400425A647B681B68224A934222D026
:1057B4007B681B68B3F1804F1DD07B681B681F4A50
:1057C400934218D07B681B681D4A934213D07B68B0
:1057D4001B681C4A93420ED07B681B68164A93428E
:1057E40009D07B681B68184A934204D07B681B6805
:1057F400164A934211D17B681B689B6803F0070328
:10580400FB60FB68062B10D07B681B681A687B68FA
:105814001B6842F001021A6007E07B681B681A6883
:105824007B681B6842F001021A6000231846103797
:10583400BD4680BD0000014000040140000400405A
:1058440000080040000C00400040014000180040E7
:1058540080B582B000AF786039607B681B68002235
:105864003968184600F008FE7B681B682E4A93428C
:1058740004D07B681B682D4A934201D1012300E0C8
:105884000023002B17D07B681B681A6A41F211139E
:105894001340002B0FD17B681B681A6A40F2444303
:1058A4001340002B07D17B681B685A6C7B681B680C
:1058B40022F400425A647B681B681A6A41F211138D
:1058C4001340002B0FD17B681B681A6A40F24443D3
:1058D4001340002B07D17B681B681A687B681B6820
:1058E40022F001021A603B68002B04D17B6801227C
:1058F40083F83E2013E03B68042B04D17B6801222B
:1059040083F83F200BE03B68082B04D17B6801221D
:1059140083F8402003E07B68012283F841200023C0
:1059240018460837BD4680BD000001400004014010
:1059340080B582B000AF78607B681B681B6903F098
:105944000203022B22D17B681B68DB6803F002038D
:10595400022B1BD17B681B686FF002021A617B6803
:1059640001221A777B681B689B6903F00303002BF1
:1059740003D0786800F077FA05E0786800F069FAF7
:10598400786800F07AFA7B6800221A777B681B68D3
:105994001B6903F00403042B22D17B681B68DB68BA
:1059A40003F00403042B1BD17B681B686FF0040213
:1059B4001A617B6802221A777B681B689B6903F46F
:1059C4004073002B03D0786800F04DFA05E0786846
:1059D40000F03FFA786800F050FA7B6800221A77EA
:1059E4007B681B681B6903F00803082B22D17B68C2
:1059F4001B68DB6803F00803082B1BD17B681B685A
:105A04006FF008021A617B6804221A777B681B68AE
:105A1400DB6903F00303002B03D0786800F023FA5A
:105A240005E0786800F015FA786800F026FA7B68DB
:105A340000221A777B681B681B6903F01003102B84
:105A440022D17B681B68DB6803F01003102B1BD189
:105A54007B681B686FF010021A617B6808221A7752
:105A64007B681B68DB6903F44073002B03D0786800
:105A740000F0F9F905E0786800F0EBF9786800F0D7
:105A8400FCF97B6800221A777B681B681B6903F0AA
:105A94000103012B0ED17B681B68DB6803F0010353
:105AA400012B07D17B681B686FF001021A617868CB
:105AB400FDF79AFC7B681B681B6903F08003802B4D
:105AC4000ED17B681B68DB6803F08003802B07D151
