:020000040800F2
:100000000000022009360008712C0008772C000837
:100010007D2C0008832C0008892C000800000000BB
:100020000000000000000000000000008F2C00080D
:100030009D2C000800000000AB2C0008B92C000823
:100040005936000859360008593600085936000854
:100050005936000859360008C52C000859360008E2
:100060005936000859360008593600085936000834
:100070005936000859360008593600085936000824
:100080005936000859360008593600085936000814
:100090005936000859360008593600085936000804
:1000A00059360008593600085936000859360008F4
:1000B000E52C000859360008593600085936000862
:1000C00059360008593600085936000859360008D4
:1000D00059360008593600085936000859360008C4
:1000E000F92C00085936000859360008593600081E
:1000F00059360008593600085936000859360008A4
:100100005936000859360008593600085936000893
:1001100059360008712D0008593600085936000874
:100120005936000859360008593600085936000873
:100130005936000800000000000000005936000891
:100140005936000859360008593600085936000853
:10015000593600085936000859360008CD2D0008D8
:100160005936000859360008593600085936000833
:1001700059360008593600085936000800000000BA
:1001800000000000593600080000000000000000D8
:100190005936000800000000000000005936000831
:1001A00000000000000000000000000059360008B8
:1001B00059360008593600085936000859360008E3
:0401C00059360008A4
:1001C40010B5054C237833B9044B13B10448AFF38D
:1001D40000800123237010BD1400002000000000E3
:1001E4001079000808B5034B1BB103490348AFF36A
:1001F400008008BD000000001800002010790008ED
:1002040053B94AB9002908BF00281CBF4FF0FF3179
:100214004FF0FF3000F074B9ADF1080C6DE904CE75
:1002240000F006F8DDF804E0DDE9022304B07047CD
:100234002DE9F047089D04468E46002B4DD18A4295
:10024400944669D9B2FA82F252B101FA02F3C2F1C8
:10025400200120FA01F10CFA02FC41EA030E944059
:100264004FEA1C48210CBEFBF8F61FFA8CF708FB7A
:1002740016E341EA034306FB07F199420AD91CEB52
:10028400030306F1FF3080F01F81994240F21C8184
:10029400023E63445B1AA4B2B3FBF8F008FB1033CC
:1002A40044EA034400FB07F7A7420AD91CEB040401
:1002B40000F1FF3380F00A81A74240F207816444D1
:1002C400023840EA0640E41B00261DB1D440002356
:1002D400C5E900433146BDE8F0878B4209D9002DBA
:1002E40000F0EF800026C5E9000130463146BDE844
:1002F400F087B3FA83F6002E4AD18B4202D38242AE
:1003040000F2F980841A61EB030301209E46002D5C
:10031400E0D0C5E9004EDDE702B9FFDEB2FA82F2B1
:10032400002A40F09280A1EB0C014FEA1C471FFA0F
:100334008CFE0126200CB1FBF7F307FB131140EAF6
:1003440001410EFB03F0884208D91CEB010103F1C3
:10035400FF3802D2884200F2CB804346091AA4B285
:10036400B1FBF7F007FB101144EA01440EFB00FE59
:10037400A64508D91CEB040400F1FF3102D2A645BE
:1003840000F2BB800846A4EB0E0440EA03409CE75D
:10039400C6F12007B34022FA07FC4CEA030C20FA0A
:1003A40007F401FA06F31C43F9404FEA1C4900FA2A
:1003B40006F3B1FBF9F8200C1FFA8CFE09FB1811A7
:1003C40040EA014108FB0EF0884202FA06F20BD91A
:1003D4001CEB010108F1FF3A80F08880884240F26A
:1003E4008580A8F102086144091AA4B2B1FBF9F0AE
:1003F40009FB101144EA014100FB0EFE8E4508D9A9
:100404001CEB010100F1FF346CD28E456AD902382D
:10041400614440EA0840A0FB0294A1EB0E01A14212
:10042400C846A64656D353D05DB1B3EB080261EB80
:100434000E0101FA07F722FA06F3F1401F43C5E95A
:10044400007100263146BDE8F087C2F12003D84090
:100454000CFA02FC21FA03F3914001434FEA1C47D2
:100464001FFA8CFEB3FBF7F007FB10360B0C43EAC4
:10047400064300FB0EF69E4204FA02F408D91CEB74
:10048400030300F1FF382FD29E422DD90238634472
:100494009B1B89B2B3FBF7F607FB163341EA034112
:1004A40006FB0EF38B4208D91CEB010106F1FF3861
:1004B40016D28B4214D9023E6144C91A46EA004658
:1004C40038E72E46284605E70646E3E61846F8E6EA
:1004D4004B45A9D2B9EB020864EB0C0E0138A3E733
:1004E4004646EAE7204694E74046D1E7D0467BE714
:1004F400023B614432E7304609E76444023842E78C
:10050400704700BF80B584B000AF3B4600221A603C
:100514005A609A60DA60214B214A1A601F4B4FF4EB
:1005240040325A601D4B00229A601C4B00221A6113
:100534001A4B00221A76194B002283F82020174BFD
:100544000022DA62154B174A9A62144B0022DA60D1
:10055400124B0122DA61114B002283F830200F4B39
:1005640001225A610D4803F0E9F80346002B01D03B
:1005740000F0F6FC00233B6001237B600423BB6096
:100584003B461946054803F0BBFA0346002B01D04D
:1005940000F0E6FC00BF1037BD4680BD3C000020E3
:1005A400002001400100000F80B58AB000AF7860E0
:1005B40007F1140300221A605A609A60DA601A6123
:1005C4007B681B68174A934227D100233B61164B73
:1005D4005B6C154A43F480735364134B5B6C03F4F4
:1005E40080733B613B690023FB600F4B1B6B0E4A1E
:1005F40043F0010313630C4B1B6B03F00103FB601B
:10060400FB6801237B610323BB610023FB6107F1CA
:1006140014031946054803F045FE00BF2837BD46BC
:1006240080BD00BF002001400038024000000240AD
:1006340080B500AF254803F0C5F86421234803F0D2
:10064400C6F9224803F04EFA03469AB2204B1A80A8
:100654001F4B1B889BB21A461E4B1B6813441D4A32
:1006640013601D4B1B78DBB20133DAB21A4B1A70DC
:10067400164803F079F90A2000F08CF8164B1B7821
:10068400DBB2642B20D1134B1B68144AA2FB032357
:100694005B099AB2124B1A80114B1B889BB207EE6E
:1006A400903AB8EEE77ADFED0F6AC7EE267AFCEEF1
:1006B400E77A17EE903A9AB20B4B1A80054B002258
:1006C4001A60054B00221A7000BF80BD3C00002058
:1006D4003200002034000020380000201F85EB5138
:1006E4003A000020FBCB22403000002080B584B0CB
:1006F40000AF78600D4B5B68FB6004F0CFF80346F5
:100704000B4AA2FB03239B0C7A6802FB03F37B6076
:1007140000BF064B5A68FB68D21A7B689A42F8D32A
:1007240000BF00BF1037BD4680BD00BF001000E011
:1007340083DE1B4380B400AF144BDB68134A23F001
:100744008073D360114BDB68104A43F08073D3602D
:100754000F4B1B680E4A23F0010313600C4B1B68FC
:100764000B4A43F001031360094B00225A6000BF97
:1007740000BF00BF064B5B68002B01D0002300E0E4
:1007840001231846BD465DF8047B7047F0ED00E098
:10079400001000E080B582B000AF78607B684FF451
:1007A4007A7202FB03F31846FFF7A0FF00BF083775
:1007B400BD4680BD80B400AF044BDB681B0A03F068
:1007C40007031846BD465DF8047B704700ED00E062
:1007D40080B483B000AF0346FB7197F90730002B58
:1007E4000BDBFB7903F01F02074997F907305B091C
:1007F400012000FA02F241F8232000BF0C37BD4665
:100804005DF8047B704700BF00E100E080B483B072
:1008140000AF03463960FB7197F90730002B0ADB00
:100824003B68DAB20C4997F907301201D2B20B4493
:1008340083F800230AE03B68DAB20849FB7903F045
:100844000F03043B1201D2B20B441A7600BF0C37DB
:10085400BD465DF8047B704700E100E000ED00E078
:1008640080B489B000AFF860B9607A60FB6803F0C7
:100874000703FB61FB69C3F10703042B28BF0423AF
:10088400BB61FB690433062B02D9FB69033B00E01F
:1008940000237B614FF0FF32BB6902FA03F3DA43B2
:1008A400BB681A407B699A404FF0FF317B6901FABB
:1008B40003F3D9437B680B40134318462437BD46E2
:1008C4005DF8047B7047000080B485B000AF7860A9
:1008D4003960134A3B68DBB2023352F823203B6889
:1008E4001B0CDB4302EA03013B681B0CFB60FB6847
:1008F40093FAA3F3BB60BB68B3FA83F3DBB21A4683
:100904007B6803FA02F206483B68DBB20A4302330F
:1009140040F8232000BF1437BD465DF8047B7047C0
:100924000038014080B489B000AFF860B9607A60E3
:10093400FB681A68BB687B617B6993FAA3F33B612C
:100944003B69B3FA83F3DBB25B00032101FA03F3DF
:10095400DB431A40BB68FB61FB6993FAA3F3BB61F9
:10096400BB69B3FA83F3DBB25B00796801FA03F382
:100974001A43FB681A6000BF2437BD465DF8047B48
:10098400704780B489B000AFF860B9607A60FB68E2
:10099400DA68BB687B617B6993FAA3F33B613B69CB
:1009A400B3FA83F3DBB25B00032101FA03F3DB4305
:1009B4001A40BB68FB61FB6993FAA3F3BB61BB6993
:1009C400B3FA83F3DBB25B00796801FA03F31A43E9
:1009D400FB68DA6000BF2437BD465DF8047B7047CE
:1009E40080B483B000AF786039603B681A047B68D8
:1009F4009A6100BF0C37BD465DF8047B7047000068
:100A040080B485B000AF7860084B1A6B07497B68E7
:100A140013430B63054B1A6B7B681340FB60FB6845
:100A240000BF1437BD465DF8047B704700380240B0
:100A340080B588B000AF07F1180300221A605A602D
:100A44003B4600221A605A609A60DA601A615A6161
:100A54000420FFF7D5FF8020FFF7D2FF0120FFF726
:100A6400CFFF0220FFF7CCFF0820FFF7C9FF42F6B3
:100A740007418148FFF7B4FF82218048FFF7B0FFA8
:100A840045F2E0317E48FFF7ABFF42F607433B6097
:100A940001237B600023BB600023FB6000233B61D8
:100AA4003B461946744806F081FE82233B600123CD
:100AB4007B600023BB600123FB6000233B613B465A
:100AC40019466E4806F072FE40F20C633B60022346
:100AD4007B600323BB600023FB6000233B6107238F
:100AE4007B613B461946654806F060FE41F670138B
:100AF4003B6000237B6000233B613B4619465F4813
:100B040006F054FE20233B6002237B600323BB607A
:100B14000023FB6000233B6107237B613B461946AE
:100B2400554806F043FE4FF480633B6002237B602C
:100B34000323BB600023FB6000233B6107237B612D
:100B44003B4619464E4806F031FE4FF480533B6055
:100B540001237B600023BB600123FB6000233B6116
:100B64003B461946464806F021FE4FF400533B60CD
:100B740000237B6000233B613B461946404806F056
:100B840015FE44F2E0333B6001237B600023BB602D
:100B94000023FB6000233B613B461946384806F0BE
:100BA40005FE4FF400733B6000237B6000233B6130
:100BB4003B461946304806F0F9FD4FF470210120F8
:100BC400FFF782FE2F490120FFF77EFE0123BB6160
:100BD40001233B7700237B770323BB7707F11803BB
:100BE400184606F05DFC4FF40043BB6101233B77DC
:100BF40000237B770123BB7707F11803184606F01F
:100C04004FFC002201211E48FFF7BBFE00224FF4D7
:100C140000411B48FFF7B5FE002201211848FFF7E9
:100C240081FE00224FF400411548FFF77BFEFFF7D9
:100C3400C1FD0346002200211846FFF711FE0346BA
:100C440019460620FFF7E2FD0620FFF7C1FDFFF776
:100C5400B1FD0346002200211846FFF701FE0346BA
:100C640019462820FFF7D2FD2820FFF7B1FD00BF69
:100C74002037BD4680BD00BF00080240000002408E
:100C840000040240030000F080B483B000AF786039
:100C940039607B683A689A6100BF0C37BD465DF8DD
:100CA400047B704780B483B000AF786039603B68E0
:100CB4001A047B689A6100BF0C37BD465DF8047B5B
:100CC4007047000080B584B000AF78600D4B5B685E
:100CD400FB6003F0E3FD03460B4AA2FB03239B0CDA
:100CE4007A6802FB03F37B6000BF064B5A68FB681B
:100CF400D21A7B689A42F8D300BF00BF1037BD46B2
:100D040080BD00BF001000E083DE1B4380B500AF50
:100D140002F0A2FC00F0A6F8FFF78AFEFFF7F2FB50
:100D240002F070FB02F06EF902F096FB02F01CF97F
:100D340000F00AF9FFF7FEFC414801F009FA4148C6
:100D440001F006FA02F0A8F83F4B1B68DA683E4B44
:100D54001B6842F02002DA603C4B1B78DBB2002BAC
:100D64002FD13B4B1B78DBB2062B66D801A252F87D
:100D740023F000BF950D00089B0D0008A10D00088D
:100D8400A70D0008AD0D0008B30D0008B90D00084B
:100D940001F084FA52E001F0EBFA4FE001F022FB9B
:100DA4004CE001F04FFB49E001F0A2FB46E001F00A
:100DB4002DFD43E0274B1B78DBB2184600F0A0FB67
:100DC4003CE0254B1B78002B29D14FF4804123486C
:100DD400FFF75AFF4FF40051204803F0F7FB034696
:100DE4001A461D4B1A704FF480411C48FFF75AFFF6
:100DF4001B4B1B780133DAB2194B1A70184B1B7852
:100E0400042B08D90C2000F07BFB134B01221A7031
:100E1400134B00221A701420FFF754FF9CE74FF481
:100E240080410E48FFF730FF4FF480410B48FFF735
:100E340039FF1420FFF746FF8EE700BF8CE700BFA1
:100E44007804002088000020640A00208A09002019
:100E54008400002087000020850000200004024058
:100E64008600002080B594B000AF07F11C03342243
:100E74000021184606F042FD07F1080300221A601B
:100E84005A609A60DA601A6100237B602C4B1B6CF9
:100E94002B4A43F080531364294B1B6C03F080539B
:100EA4007B607B6800233B60264B1B68254A43F428
:100EB40040431360234B1B6803F440433B603B688F
:100EC4000123FB614FF480333B6202237B634FF4C5
:100ED4008003BB630C23FB63B4233B6402237B6466
:100EE4000223BB640223FB6407F11C03184603F0CE
:100EF400B3FE0346002B01D000F032F803F098FB58
:100F04000346002B01D000F02BF80F23BB60032312
:100F1400FB6000233B614FF4A0537B614FF480538B
:100F2400BB6107F108030521184603F0D1FB034612
:100F3400002B01D000F014F800BF5037BD4680BD2F
:100F4400003802400070004080B500AF002200214C
:100F54001C2003F0DEF81C2003F0F7F800BF80BD6E
:100F640080B400AF72B600BFFEE7000080B586B063
:100F740000AF0346FB710023FB750023FB740023C1
:100F8400BB6007F10C0300221A601A71FB79042B71
:100F94005DD8FB7C5A1CFA7418333B44FA2203F8DC
:100FA400102CFB7C5A1CFA7418333B44002203F8BF
:100FB400102CFB7C5A1CFA7418333B44D02203F8DF
:100FC400102CFB7C5A1CFA7418333B440F2203F890
:100FD400102CFB7C5A1CFA7418333B44FA7903F83E
:100FE400102CFB7C5A1CFA7418333B44002203F87F
:100FF400102CFB7C5A1CFA7418333B44002203F86F
:10100400102CFB7C5A1CFA7418333B44002203F85E
:10101400102C3B7AFB750123BB820AE0BB8A183390
:101024003B4413F8102CFB7D5340FB75BB8A013302
:10103400BB82FB7C9BB2BA8A9A42EFD3FB7C5A1CDC
:10104400FA7418333B44FA7D03F8102C00E000BF17
:1010540007F1080140F6B8330922034805F0C1F945
:1010640000BF1837BD4680BD640A002080B586B035
:1010740000AF03460A46FB711346BB710023FB75A0
:101084000023FB740023BB6007F10C0300221A60E9
:101094001A71FB79002B04D0002B60DB023B062B7A
:1010A4005DD8FB7C5A1CFA7418333B44FA2203F8CB
:1010B400102CFB7C5A1CFA7418333B44002203F8AE
:1010C400102CFB7C5A1CFA7418333B44D02203F8CE
:1010D400102CFB7C5A1CFA7418333B44F02203F89E
:1010E400102CFB7C5A1CFA7418333B44FA7903F82D
:1010F400102CFB7C5A1CFA7418333B44002203F86E
:10110400102CFB7C5A1CFA7418333B44012203F85C
:10111400102CFB7C5A1CFA7418333B44BA7903F83C
:10112400102C3B7AFB750123BB820AE0BB8A18337F
:101134003B4413F8102CFB7D5340FB75BB8A0133F1
:10114400BB82FB7C9BB2BA8A9A42EFD3FB7C5A1CCB
:10115400FA7418333B44FA7D03F8102C00E000BF06
:1011640007F1080164230922034805F03AF900BF96
:101174001837BD4680BD00BF200A002080B586B068
:1011840000AF0346FB710023FB750023FB740023AF
:10119400BB6007F10C0300221A609A80FB7C5A1C86
:1011A400FA7418333B44FA2203F8102CFB7C5A1CC3
:1011B400FA7418333B44002203F8102CFB7C5A1CAD
:1011C400FA7418333B44D02203F8102CFB7C5A1CCD
:1011D400FA7418333B44F02203F8102CFB7C5A1C9D
:1011E400FA7418333B44012203F8102CFB7C5A1C7C
:1011F400FA7418333B44002203F8102CFB7C5A1C6D
:10120400FA7418333B44012203F8102CFB7C5A1C5B
:10121400FA7418333B44FA7903F8102C194B1B88E1
:101224009AB2FB7C591CF974D2B218333B4403F8CC
:10123400102C3B7AFB750123BB820AE0BB8A18336E
:101244003B4413F8102CFB7D5340FB75BB8A0133E0
:10125400BB82FB7C9BB2BA8A9A42EFD3FB7C5A1CBA
:10126400FA7418333B44FA7D03F8102C07F1080193
:1012740064230A22044805F0B4F800BF1837BD46B9
:1012840080BD00BF30000020200A002080B586B059
:1012940000AF03460A46FB711346BB710023FB757E
:1012A4000023FB740023BB6007F10C0300221A60C7
:1012B4001A71FB7C5A1CFA7418333B44FA2203F863
:1012C400102CFB7C5A1CFA7418333B44002203F89C
:1012D400102CFB7C5A1CFA7418333B44D02203F8BC
:1012E400102CFB7C5A1CFA7418333B440F2203F86D
:1012F400102CFB7C5A1CFA7418333B44FA7903F81B
:10130400102CFB7C5A1CFA7418333B44002203F85B
:10131400102CFB7C5A1CFA7418333B44012203F84A
:10132400102CFB7C5A1CFA7418333B44BA7903F82A
:10133400102C3B7AFB750123BB820AE0BB8A18336D
:101344003B4413F8102CFB7D5340FB75BB8A0133DF
:10135400BB82FB7C9BB2BA8A9A42EFD3FB7C5A1CB9
:10136400FA7418333B44FA7D03F8102C07F1080192
:1013740064230922034805F034F800BF1837BD463A
:1013840080BD00BF200A002080B483B000AF786025
:1013940039607B683A689A6100BF0C37BD465DF8D6
:1013A400047B704780B483B000AF786039603B68D9
:1013B4001A047B689A6100BF0C37BD465DF8047B54
:1013C40070470000B0B48BB000AF0346FB71FB79EB
:1013D400002B08D0FB79022B05D0FB79042B02D01B
:1013E400FB79062B34D11F4B07F108041D460FCDA2
:1013F4000FC495E80F0084E80F001B4B1B681946C7
:10140400FB799B0028333B4453F8202C174B1B6873
:10141400B1FBF2F2DA62144B1B681A46FB799B00AB
:1014240028333B4453F8203CB2FBF3F30F4AD36018
:101434000F4B1B681A46FB799B0028333B4453F837
:10144400203CB2FBF3F2094B1B685208DA6304E058
:10145400064B1B680022DA6300BF00BF2C37BD4671
:10146400B0BC70472879000800000020D80900208B
:1014740004000020B0B48BB000AF0346FB711C4BDA
:1014840007F108041D460FCD0FC495E80F0084E84A
:101494000F00184B1B681946FB799B0028333B440B
:1014A40053F8202C144B1B68B1FBF2F2DA62114B97
:1014B4001B681A46FB799B0028333B4453F8203CB5
:1014C400B2FBF3F30C4AD3600C4B1B681A46FB794E
:1014D4009B0028333B4453F8203CB2FBF3F2064B09
:1014E4001B685208DA6300BF2C37BD46B0BC704796
:1014F4004879000800000020D809002004000020DA
:1015040080B58AB000AF0346FB71D74AFB791370EC
:10151400D54B1B78DBB20D2B00F2288301A252F8C5
:1015240023F000BF611500088715000803160008A2
:10153400831600080317000883170008F117000832
:101544005F180008DD1800084B190008B9190008D5
:10155400271A0008951A0008031B00080421C34831
:10156400FFF720FF2021C248FFF71CFF4FF4006162
:10157400BE48FFF717FF4FF48061BC48FFF712FF26
:10158400F5E20821BB4803F04DFF002387F827301C
:1015940030E097F827301846FFF76CFF012387F8EF
:1015A40026301EE000F0FAFA00F060FB0120FFF79D
:1015B400F1F800F00DFB00F081FB0120FFF7EAF8E1
:1015C40000F020FB00F0A2FB0120FFF7E3F800F09D
:1015D40033FB0120FFF7DEF897F82630013387F854
:1015E400263097F826307D2BDCD997F82730013345
:1015F40087F8273097F82730072BCAD9B7E2082194
:101604009C4803F00FFF002387F8253032E097F859
:1016140025301846FFF7D6FE012387F8243020E052
:1016240000F0BCFA00F09AFB0120FFF7B3F800F0D9
:10163400CFFA00F0BBFB0120FFF7ACF800F0E2FAB0
:1016440000F0DCFB0120FFF7A5F800F0F5FA00F04C
:10165400FDFB0120FFF79EF897F82430013387F84B
:10166400243097F824307D2BDAD997F825300133CC
:1016740087F8253097F82530072BC8D977E2082159
:101684007C4803F0CFFE002387F8233032E097F83C
:1016940023301846FFF796FE012387F8223020E016
:1016A40000F07CFA00F05AFB0120FFF773F800F019
:1016B4008FFA00F07BFB0120FFF76CF800F0A2FA30
:1016C40000F09CFB0120FFF765F800F0B5FA00F08C
:1016D400E5FB0120FFF75EF897F82230013387F825
:1016E400223097F822307D2BDAD997F82330013352
:1016F40087F8233097F82330072BC8D937E208211D
:101704005C4803F08FFE002387F8213032E097F81D
:1017140021301846FFF756FE012387F8203020E0D9
:1017240000F03CFA00F01AFB0120FFF733F800F058
:101734004FFA00F03BFB0120FFF72CF800F062FAAF
:1017440000F05CFB0120FFF725F800F075FA00F0CB
:10175400CDFB0120FFF71EF897F82030013387F8FE
:10176400203097F820307D2BDAD997F821300133D7
:1017740087F8213097F82130072BC8D9F7E10821E1
:101784003C4803F04FFE0023FB772BE0FB7F184619
:10179400FFF718FE0123BB771EE000F0FFF900F00D
:1017A400DDFA0120FEF7F6FF00F012FA00F0FEFA6F
:1017B4000120FEF7EFFF00F025FA00F01FFB0120E7
:1017C400FEF7E8FF00F038FA00F0B8FB0120FEF75E
:1017D400E1FFBB7F0133BB77BB7F7D2BDDD9FB7F73
:1017E4000133FB77FB7F072BD0D9C0E108212148C7
:1017F40003F018FE00237B772BE07B7F1846FFF76E
:10180400E1FD01233B771EE000F0C8F900F0A6FAE1
:101814000120FEF7BFFF00F0DBF900F0C7FA01205A
:10182400FEF7B8FF00F0EEF900F0E8FA0120FEF749
:10183400B1FF00F001FA00F0A9FB0120FEF7AAFFB6
:101844003B7F01333B773B7F7D2BDDD97B7F0133AE
:101854007B777B7F072BD0D989E10821054803F0EA
:10186400E1FD0023FB7633E08700002000080240FE
:1018740000040240D8090020FB7E1846FFF7A2FDB1
:101884000123BB761EE000F089F900F067FA01201D
:10189400FEF780FF00F09CF900F088FA0120FEF7C3
:1018A40079FF00F0AFF900F0A9FA0120FEF772FF0A
:1018B40000F0C2F900F092FB0120FEF76BFFBB7E43
:1018C4000133BB76BB7E7D2BDDD9FB7E0133FB76FA
:1018D400FB7E072BD0D94AE10821AD4803F0A2FDD5
:1018E40000237B762BE07B7E1846FFF76BFD0123FC
:1018F4003B761EE000F052F900F030FA0120FEF7CA
:1019040049FF00F065F900F051FA0120FEF742FFAB
:1019140000F078F900F072FA0120FEF73BFF00F0C6
:101924008BF900F083FB0120FEF734FF3B7E01338B
:101934003B763B7E7D2BDDD97B7E01337B767B7EC4
:10194400072BD0D913E10821914803F06BFD002344
:10195400FB752BE0FB7D1846FFF734FD0123BB75B7
:101964001EE000F01BF900F0F9F90120FEF712FF68
:1019740000F02EF900F01AFA0120FEF70BFF00F038
:1019840041F900F03BFA0120FEF704FF00F054F99E
:1019940000F074FB0120FEF7FDFEBB7D0133BB7537
:1019A400BB7D7D2BDDD9FB7D0133FB75FB7D072BD7
:1019B400D0D9DCE00821764803F034FD00237B75A0
:1019C4002BE07B7D1846FFF7FDFC01233B751EE0F1
:1019D40000F0E4F800F0C2F90120FEF7DBFE00F0AD
:1019E400F7F800F0E3F90120FEF7D4FE00F00AF95D
:1019F40000F004FA0120FEF7CDFE00F01DF900F01E
:101A040065FB0120FEF7C6FE3B7D01333B753B7D44
:101A14007D2BDDD97B7D01337B757B7D072BD0D975
:101A2400A5E008215A4803F0FDFC0023FB742BE0D9
:101A3400FB7C1846FFF7C6FC0123BB741EE000F0D4
:101A4400ADF800F08BF90120FEF7A4FE00F0C0F819
:101A540000F0ACF90120FEF79DFE00F0D3F800F091
:101A6400F5F90120FEF796FE00F0E6F800F0C6F95D
:101A74000120FEF78FFEBB7C0133BB74BB7C7D2B46
:101A8400DDD9FB7C0133FB74FB7C072BD0D96EE0E2
:101A940008213F4803F0C6FC00237B742BE07B7CC9
:101AA4001846FFF78FFC01233B741EE000F076F824
:101AB40000F054F90120FEF76DFE00F089F800F003
:101AC40075F90120FEF766FE00F09CF800F0BEF9FF
:101AD4000120FEF75FFE00F0AFF800F0B7F9012037
:101AE400FEF758FE3B7C01333B743B7C7D2BDDD9F8
:101AF4007B7C01337B747B7C072BD0D937E00821B6
:101B0400234803F08FFC0023FB732BE0FB7B184678
:101B1400FFF758FC0123BB731EE000F03FF800F010
:101B24001DF90120FEF736FE00F052F800F03EF9F0
:101B34000120FEF72FFE00F065F800F087F9012080
:101B4400FEF728FE00F078F800F0A8F90120FEF76F
:101B540021FEBB7B0133BB73BB7B7D2BDDD9FB7BC0
:101B64000133FB73FB7B072BD0D900E000BF0821B6
:101B7400074803F01FFD00F0D1FA064B00221A704B
:101B8400054B04221A7000BF2837BD4680BD00BF34
:101B9400D8090020870000208400002080B500AF11
:101BA40004210948FFF7F0FB20210848FFF7FAFB5E
:101BB4004FF400610448FFF7F5FB4FF480610248DD
:101BC400FFF7F0FB00BF80BD0008024000040240A4
:101BD40080B500AF04210948FFF7E4FB2021084841
:101BE400FFF7D2FB4FF400610448FFF7DBFB4FF42F
:101BF40080610248FFF7D6FB00BF80BD00080240A9
:101C04000004024080B500AF04210948FFF7CAFB75
:101C140020210848FFF7C6FB4FF400610448FFF792
:101C2400B3FB4FF480610248FFF7BCFB00BF80BDEB
:101C3400000802400004024080B500AF04210948B6
:101C4400FFF7B0FB20210848FFF7ACFB4FF400611D
:101C54000448FFF7A7FB4FF480610248FFF794FBA9
:101C640000BF80BD000802400004024080B500AF00
:101C74004FF400510F48FFF787FB80210E48FFF710
:101C840083FB40210C48FFF78DFB4FF480710A4819
:101C9400FFF788FB02210748FFF776FB012105487F
:101CA400FFF772FB4FF400710348FFF76DFB00BFB1
:101CB40080BD00BF000802400004024080B500AFB0
:101CC4004FF400510F48FFF75FFB80210E48FFF7E8
:101CD4005BFB40210C48FFF757FB4FF480710A4827
:101CE400FFF760FB02210748FFF74EFB012105487F
:101CF400FFF74AFB4FF400710348FFF745FB00BFB1
:101D040080BD00BF000802400004024080B500AF5F
:101D14004FF400510F48FFF737FB80210E48FFF7BF
:101D240041FB40210C48FFF72FFB4FF480710A4818
:101D3400FFF72AFB02210748FFF734FB012105487E
:101D4400FFF722FB4FF400710348FFF71DFB00BFB0
:101D540080BD00BF000802400004024080B500AF0F
:101D64004FF400510F48FFF70FFB80210E48FFF797
:101D740019FB40210C48FFF715FB4FF480710A480A
:101D8400FFF702FB02210748FFF7FEFA012105488D
:101D9400FFF7FAFA4FF400710348FFF7F5FA00BFB2
:101DA40080BD00BF000802400004024080B500AFBF
:101DB4004FF400510F48FFF7F5FA80210E48FFF762
:101DC400F1FA40210C48FFF7EDFA4FF480710A480C
:101DD400FFF7E8FA02210748FFF7D6FA0121054880
:101DE400FFF7E0FA4FF400710348FFF7CDFA00BFA4
:101DF40080BD00BF000802400004024080B500AF6F
:101E04004FF400510F48FFF7BFFA80210E48FFF747
:101E1400BBFA40210C48FFF7B7FA4FF480710A4827
:101E2400FFF7B2FA02210748FFF7AEFA012105488D
:101E3400FFF7AAFA4FF400710348FFF7B3FA00BFA3
:101E440080BD00BF000802400004024080B500AF1E
:101E54004FF400510F48FFF7A5FA80210E48FFF711
:101E640093FA40210C48FFF78FFA4FF480710A4827
:101E7400FFF798FA02210748FFF794FA0121054871
:101E8400FFF790FA4FF400710348FFF78BFA00BF95
:101E940080BD00BF000802400004024080B500AFCE
:101EA4004FF400510F48FFF76FFA80210E48FFF7F7
:101EB4006BFA40210C48FFF775FA4FF480710A4819
:101EC400FFF762FA02210748FFF75EFA012105488D
:101ED400FFF768FA4FF400710348FFF755FA00BFA3
:101EE40080BD00BF000802400004024080B500AF7E
:101EF4004FF400510F48FFF747FA80210E48FFF7CF
:101F040043FA40210C48FFF73FFA4FF480710A4826
:101F1400FFF73AFA02210748FFF744FA012105487E
:101F2400FFF740FA4FF400710348FFF72DFA00BFA2
:101F340080BD00BF000802400004024080B500AF2D
:101F44004FF400510F48FFF72DFA80210E48FFF798
:101F54001BFA40210C48FFF717FA4FF480710A4826
:101F6400FFF720FA02210748FFF71CFA0121054870
:101F7400FFF70AFA4FF400710348FFF705FA00BFB0
:101F840080BD00BF000802400004024080B500AFDD
:101F94004FF400510F48FFF7F7F980210E48FFF77F
:101FA40001FA40210C48FFF7EFF94FF480710A4819
:101FB400FFF7EAF902210748FFF7F4F90121054880
:101FC400FFF7E2F94FF400710348FFF7DDF900BFB2
:101FD40080BD00BF000802400004024080B500AF8D
:101FE4004FF400510F48FFF7CFF980210E48FFF757
:101FF400D9F940210C48FFF7C7F94FF480710A481A
:10200400FFF7C2F902210748FFF7BEF9012105488D
:10201400FFF7BAF94FF400710348FFF7B5F900BFB1
:1020240080BD00BF000802400004024080B500AF3C
:102034004FF400510F48FFF7A7F980210E48FFF72E
:10204400A3F940210C48FFF79FF94FF480710A4827
:10205400FFF7A8F902210748FFF7A4F90121054871
:10206400FFF7A0F94FF400710348FFF79BF900BF95
:1020740080BD00BF000802400004024080B500AFEC
:102084004FF400510F48FFF77FF980210E48FFF706
:102094007BF940210C48FFF777F94FF480710A4827
:1020A400FFF772F902210748FFF76EF9012105488D
:1020B400FFF76AF94FF400710348FFF765F900BFB1
:1020C40080BD00BF000802400004024080B500AF9C
:1020D4004FF400510F48FFF757F980210E48FFF7DE
:1020E40053F940210C48FFF74FF94FF480710A4827
:1020F400FFF74AF902210748FFF754F9012105487F
:10210400FFF742F94FF400710348FFF73DF900BFB0
:1021140080BD00BF000802400004024080B500AF4B
:1021240004210948FFF73EF920210848FFF73AF94E
:102134004FF400610448FFF735F94FF48061024819
:10214400FFF730F900BF80BD0008024000040240E0
:1021540080B483B000AF78607B6800225A807B68CB
:102164005A887B681A807B681A887B689A8000BFCB
:102174000C37BD465DF8047B7047000080B485B021
:1021840000AF78600B46FB707B681B68124A934271
:1021940001D1124B00E0124BFB60FB681B885A1CF8
:1021A40091B2FA6811801A46FB681344FA789A715E
:1021B400FB681B88B3F57A7F02D1FB6800221A8082
:1021C400FB689B8801339AB2FB689A8000BF14377E
:1021D400BD465DF8047B7047005000407804002041
:1021E4008800002080B485B000AF78607B681B68ED
:1021F400144A934201D1144B00E0144BFB60FB687A
:102204005B881A46FB6813449B79FB72FB685B8806
:1022140001339AB2FB685A80FB685B88B3F57A7F16
:1022240002D1FB6800225A80FB689B88013B9AB26A
:10223400FB689A80FB7A18461437BD465DF8047B28
:10224400704700BF00500040780400208800002040
:1022540080B483B000AF7860054B1A6804497B688A
:1022640013430B6000BF0C37BD465DF8047B704719
:10227400003C014080B483B000AF7860064B1A681C
:102284007B68DB43044913400B6000BF0C37BD4639
:102294005DF8047B704700BF003C014090B583B0FB
:1022A40000AF0023FB710020FEF760FE4FF4FA70CC
:1022B400FEF770FA0DE0284B1B785A1CD1B2264A5F
:1022C40011701C462548FFF78DFF03461A46244B20
:1022D4001A55244B9B88002BEDD1214B1B78FA2BEC
:1022E40008D01D4B00221A700D2200211C4805F055
:1022F40005FB2CE01A4B1B78FB710123BB7108E032
:10230400BB79174AD25CFB795340FB71BB7901332B
:10231400BB71BA79104B1B78013B9A42F0DB104B2E
:102324001B7BFA799A420AD10D4BDA7A0E4B1A705A
:10233400094B00221A700D4B01221A7007E0064B5C
:1023440000221A700D220021054805F0D7FA00BFBB
:102354000C37BD4690BD00BF75080020640A0020FC
:1023640068080020880000207608002084000020EF
:1023740080B500AF13E00220FEF7F8FD0120FEF760
:1023840009FA1021124802F021F903461A46114BAA
:102394001A70114B1B780133DAB20F4B1A700E4BC3
:1023A4001B78132B03D80B4B1B78012BE3D10A4B5F
:1023B40000221A70094B1B78042B03D1084B03220B
:1023C4001A7002E0064B02221A7000BF80BD00BFE3
:1023D40000000240770800207A08002076080020D8
:1023E4008400002080B500AF13E00320FEF7BEFD9B
:1023F4000120FEF7CFF920210E4802F0E7F803464A
:102404001A460D4B1A700D4B1B780133DAB20B4B85
:102414001A700A4B1B78132B03D8074B1B78012B1C
:10242400E3D1064B00221A70054B03221A7000BF39
:1024340080BD00BF00000240780800207A08002018
:102444008400002080B582B000AF20E00420FEF7B5
:102454008DFD0520FEF79EF9204B1B78042B08D137
:1024640020211F4802F0B2F803461A461D4B1A7089
:1024740007E040211A4802F0A9F803461A46194B0E
:102484001A70194B1B780133DAB2174B1A70164BBA
:102494001B78132B03D8134B1B78012BD6D1124B6B
:1024A40000221A700023FB710AE002210C4802F09A
:1024B400A5F84FF4FA70FEF76DF9FB790133FB715F
:1024C400FB79032BF1D9094B04221A704FF4004015
:1024D400FFF7BEFE00BF0837BD4680BD760800206A
:1024E40000000240790800207A08002084000020BF
:1024F40090B599B000AFB24B1B68DA68B04B1B685B
:1025040042F02002DA60002387F85F30AD4A07F119
:10251400540307CA03C31A70AB4A07F1480307CA36
:1025240003C31A70A94A07F13C0307CA03C31A700C
:10253400A74A07F1300307CA03C31A70A54A07F173
:10254400240307CA03C31A70A34A07F1180307CA6E
:1025540003C31A70A14A07F10C0307CA03C31A7014
:102564009F4A3B4607CA03C31A70FEF761F80DE0A1
:102574009C4B1B785A1CD1B29A4A11701C46904845
:10258400FFF730FE03461A46974B1A55974B9B8824
:10259400002BEDD1944B1B78FA2B08D0914B0022E1
:1025A4001A7009220021904805F0A8F903E18E4B26
:1025B4001B7887F85F30012387F85E300DE097F8C9
:1025C4005E30894AD25C97F85F30534087F85F30B9
:1025D40097F85E30013387F85E3097F85E20814BC0
:1025E4001B78013B9A42EADB7F4B1B7A97F85F200A
:1025F4009A4240F0D88007F1540309227A491846D8
:1026040005F06CF90346002B17D101210020FEF7D9
:102614002DFD774B01221A70764B1B78002B03D1CA
:102624004FF40040FFF726FE092200216E4805F012
:1026340065F96C4B00221A70B1E007F148030922D6
:102644006949184605F04AF90346002B0ED1642364
:102654000D2269495A4803F0C4FE09220021624848
:1026640005F04CF95F4B00221A7098E007F124033F
:1026740009225D49184605F031F90346002B0ED1B5
:102684005E4B1B7819460220FEF700FE092200214A
:10269400554805F033F9534B00221A707FE007F1D7
:1026A400180309225049184605F018F90346002B6F
:1026B4000ED1534B1B7819460320FEF7E7FD092280
:1026C4000021494805F01AF9464B00221A7066E0C9
:1026D40007F10C0309224449184605F0FFF80346A4
:1026E400002B0ED1474B1B7819460420FEF7CEFD74
:1026F400092200213C4805F001F93A4B00221A70E6
:102704004DE007F13C0309223749184605F0E6F885
:102714000346002B0DD1374B1B781846FEF72EFDD0
:1027240009220021304805F0E9F82E4B00221A70E6
:1027340035E007F1300309222B49184605F0CEF89D
:102744000346002B0BD1304B05221A7009220021BD
:10275400254805F0D3F8234B00221A701FE03B46AE
:1027640009222149184605F0B9F80346002B16D171
:1027740001210820FEF77AFC234B00221A701C4B1F
:1027840000221A700D2200211B4805F0B7F8092217
:102794000021154805F0B2F8124B00221A70114BB3
:1027A40000221A7007E00F4B00221A700922002140
:1027B4000D4805F0A3F800BF6437BD4690BD00BFC7
:1027C400200A0020687900087479000880790008DC
:1027D4008C79000898790008A4790008B079000879
:1027E400BC790008850800207C08002078040020BB
:1027F400660800208B090020680800207708002064
:1028040078080020790800208400002080B58CB06E
:1028140000AFB24A07F1280392E8030018600433BA
:102824001980AF4A07F1200392E8030018600433CB
:102834001980AC4A07F1180392E8030018600433C6
:102844001980A94A07F1100392E8030018600433C1
:102854001980A64A07F1080392E8030018600433BC
:102864001980A34A3B4692E8030018600433198098
:102874004FF40040FFF7FEFC9E4802F0DBFC9E4B49
:102884001B78002B40F087810120FEF76FFB82E16B
:10289400994B01221A709948FFF7A4FC034687F864
:1028A4002F3097F82F300A2B0BD0954B1B785A1CDE
:1028B400D1B2934A11701946924A97F82F30535463
:1028C40069E18F4B1B78043B8E4AD35C6F2B40F03D
:1028D400A0808B4B1B78033B8A4AD35C6B2B40F064
:1028E400988007F1280306228649184604F0F6FF6B
:1028F4000346002B04D100210220FEF7B7FB7EE043
:1029040007F1200306227F49184604F0E7FF034637
:10291400002B04D100210320FEF7A8FB6FE007F190
:10292400180306227749184604F0D8FF0346002B03
:1029340004D100210420FEF799FB60E007F11003A5
:1029440006227049184604F0C9FF0346002B04D13F
:1029540000210520FEF78AFB51E007F10803062257
:102964006849184604F0BAFF0346002B04D100213D
:102974000620FEF77BFB42E03B46062261491846EF
:1029840004F0ACFF0346002B39D100210720FEF7E9
:102994006DFB5D4B06221A705C4B1B78042B13D124
:1029A4005B4B1B78002B03D15A4B03221A7026E091
:1029B400594B1B78002B03D1564B05221A701EE08D
:1029C400544B01221A701AE0514B1B78002B03D18F
:1029D400504B03221A7012E0504B1B78002B03D18A
:1029E4004C4B04221A700AE04B4B1B78002B03D18A
:1029F400484B05221A7002E0464B01221A704FF42C
:102A0400807200213F4804F079FF3D4B00221A7088
:102A1400C1E03B4B1B78043B3A4AD35C692B40F042
:102A2400B180374B1B78033B364AD35C6C2B40F0A8
:102A3400A98007F1280306223249184604F04EFF04
:102A44000346002B0AD101210220FEF70FFB2E4B77
:102A540006221A702F4B06221A7089E007F1200310
:102A640006222849184604F039FF0346002B0AD1F0
:102A740001210320FEF7FAFA234B06221A70254B94
:102A840007221A7074E007F1180306221D4918463C
:102A940004F024FF0346002B0AD101210420FEF791
:102AA400E5FA194B06221A701A4B08221A705FE0D5
:102AB40007F1100306221349184604F00FFF0346DA
:102AC400002B2DD101210520FEF7D0FA0E4B062252
:102AD4001A70104B09221A704AE000BFC879000826
:102AE400D0790008D8790008E0790008E87900086E
:102AF400F07900089009002089090020640A002068
:102B0400880900208808002084000020760800201E
:102B1400770800208700002079080020780800202A
:102B240007F1080306222449184604F0D7FE034699
:102B3400002B0AD101210620FEF798FA1F4B06222A
:102B44001A701F4B0A221A7012E03B4606221A49D9
:102B5400184604F0C3FE0346002B09D101210720C7
:102B6400FEF784FA154B06221A70154B0B221A70C5
:102B74004FF480720021104804F0C0FE114B002273
:102B84001A7008E04FF4807200210B4804F0B6FE7E
:102B94000C4B00221A700C4B9B88002B7FF478AEF0
:102BA4004FF40040FFF754FB084802F0B3FB00BFAA
:102BB4003037BD4680BD00BF880800208400002057
:102BC4008700002088090020880000209009002048
:102BD40080B483B000AF00237B60104B5B6C0F4A62
:102BE40043F4804353640D4B5B6C03F480437B607C
:102BF4007B6800233B60094B1B6C084A43F08053FD
:102C04001364064B1B6C03F080533B603B6800BFAE
:102C14000C37BD465DF8047B704700BF00380240A6
:102C240080B483B000AF7860074B5A697B68134067
:102C34007A689A420CBF01230023DBB218460C3792
:102C4400BD465DF8047B7047003C014080B483B00E
:102C540000AF7860044A7B68536100BF0C37BD46FF
:102C64005DF8047B704700BF003C014080B400AFB6
:102C7400FEE780B400AFFEE780B400AFFEE780B4A7
:102C840000AFFEE780B400AFFEE780B400AF00BF42
:102C9400BD465DF8047B704780B400AF00BFBD46FD
:102CA4005DF8047B704780B400AF00BFBD465DF89B
:102CB400047B704780B500AF00F020FD00BF80BDED
:102CC40080B500AF00F0E8F80120FFF7A9FF034644
:102CD400002B02D00120FFF7B9FF00BF80BD000028
:102CE40080B500AF024802F0D5FC00BF80BD00BF34
:102CF4009009002080B500AF184B1B78002B03D13E
:102D0400174B05221A701BE0164B1B78DBB2002B05
:102D14000BD1144B01221A70134B1B68DA68124B47
:102D24001B6822F02002DA600AE00E4B00221A70BF
:102D34000D4B1B68DA680C4B1B6842F02002DA600A
:102D44004FF40040FFF76CFF0346002B03D04FF411
:102D54000040FFF77BFF00BF80BD00BF8B09002050
:102D6400840000208A090020200A002080B582B057
:102D740000AF134B1B78DBB2042B1AD1114B1B6829
:102D84001B6803F02003202B07D10E4B1B685B68E4
:102D9400DBB219460B48FFF7F1F900237B60094BBE
:102DA4001B681B687B60074B1B685B687B607B68E8
:102DB40002E0044803F0A8FB0837BD4680BD00BF0D
:102DC40084000020200A002080B582B000AF0F4BA1
:102DD4001B681B6803F02003202B07D10B4B1B68D7
:102DE4005B68DBB219460948FFF7C8F900237B602A
:102DF400064B1B681B687B60044B1B685B687B602D
:102E04007B6800BF0837BD4680BD00BF640A002050
:102E140080B483B000AF786039607B683A689A61A7
:102E240000BF0C37BD465DF8047B704780B483B0A7
:102E340000AF786039603B681A047B689A6100BF10
:102E44000C37BD465DF8047B7047000080B483B046
:102E540000AF7860054B1A6804497B6813430B6024
:102E640000BF0C37BD465DF8047B7047003C014051
:102E740080B483B000AF7860064B1A687B68DB438C
:102E8400044913400B6000BF0C37BD465DF8047B5A
:102E9400704700BF003C014080B500AF01211648D7
:102EA40001F094FB0346002B14D0144B00221A703B
:102EB4004FF480511048FFF7ABFF80211048FFF713
:102EC400B5FF104B1B78002B14D04FF40040FFF7D4
:102ED400CFFF0FE0094B01221A704FF480510648CE
:102EE400FFF7A4FF80210648FFF792FF4FF400404C
:102EF400FFF7ACFF00BF80BD000402408B09002037
:102F0400000002406608002080B400AF064BD3F8EE
:102F14008830054A43F47003C2F8883000BFBD46C8
:102F24005DF8047B704700BF00ED00E080B483B01F
:102F340000AF786039607B683A689A6100BF0C37EB
:102F4400BD465DF8047B704780B483B000AF786001
:102F540039603B681A047B689A6100BF0C37BD4630
:102F64005DF8047B7047000080B586B000AF07F1C0
:102F7400080300221A605A609A60DA603B46002215
:102F84001A605A601E4B4FF080421A601C4B40F688
:102F9400C4125A601A4B00229A60194B40F6CA02B6
:102FA400DA60174B00221A61154B00229A6114480B
:102FB40002F0F0F80346002B01D0FDF7D1FF4FF4E7
:102FC4008053BB6007F1080319460D4802F02CFD3D
:102FD4000346002B01D0FDF7C3FF00233B60002311
:102FE4007B603B461946064803F01EF90346002B56
:102FF40001D0FDF7B5FF00BF1837BD4680BD00BF47
:103004009009002080B58EB000AF07F1280300229C
:103014001A605A609A60DA6007F1200300221A608D
:103024005A603B1D00221A605A609A60DA601A6185
:103034005A619A612C4B2D4A1A602B4B2C225A60F0
:10304400294B00229A60284B40F2F312DA60264B97
:1030540000221A61244B00229A61234802F09AF854
:103064000346002B01D0FDF77BFF4FF48053BB6276
:1030740007F1280319461C4802F0D6FC0346002B2E
:1030840001D0FDF76DFF184802F073F90346002BD9
:1030940001D0FDF765FF00233B6200237B6207F14B
:1030A40020031946104803F0BFF80346002B01D053
:1030B400FDF756FF60237B60F923BB600023FB60B0
:1030C40000237B613B1D08221946074802F0EAFBF6
:1030D4000346002B01D0FDF743FF034800F064F8DA
:1030E40000BF3837BD4680BDD80900200004004029
:1030F40080B58AB000AF786007F1140300221A602B
:103104005A609A60DA601A617B681B68B3F1804F79
:103114002CD100233B61214B1B6C204A43F001035B
:1031240013641E4B1B6C03F001033B613B690023DA
:10313400FB601A4B1B6B194A43F002031363174BD2
:103144001B6B03F00203FB60FB6804237B61022317
:10315400BB610023FB6100233B6201237B6207F117
:10316400140319460E4801F09DF812E07B681B68B1
:103174000C4A93420DD10023BB60084B1B6C074AD9
:1031840043F002031364054B1B6C03F00203BB60A2
:10319400BB6800BF2837BD4680BD00BF0038024071
:1031A400000402400004004080B588B000AF78609D
:1031B40007F10C0300221A605A609A60DA601A61FF
:1031C4007B681B68124A93421ED10023BB60114BDB
:1031D4001B6B104A43F0040313630E4B1B6B03F089
:1031E4000403BB60BB684FF48073FB6002233B6144
:1031F40000237B610023BB610223FB6107F10C0305
:103204001946054801F04EF800BF2037BD4680BD81
:1032140000040040003802400008024080B582B03B
:1032240000AF78607B681B68B3F1804F40F0DE80AC
:10323400714B1B78DBB20B2B00F2D98001A252F840
:1032440023F000BF793200089B320008B332000833
:10325400CD320008EF320008133300083933000878
:10326400533300086B33000885330008AB33000880
:10327400CF33000804216148FFF758FE4FF4005192
:103284005E48FFF761FE01215C48FFF74FFE5A4B91
:1032940001221A70ABE001215848FFF755FE0221C4
:1032A4005648FFF743FE544B02221A709FE0022156
:1032B4005248FFF749FE4FF480715148FFF736FE3C
:1032C4004D4B03221A7092E004214C48FFF73CFE58
:1032D40020214B48FFF72AFE4FF480714848FFF73E
:1032E40025FE454B04221A7081E020214448FFF753
:1032F4002BFE4FF400614148FFF718FE4FF4807134
:103304003F48FFF713FE3C4B05221A706FE04FF461
:1033140000613A48FFF718FE4FF480613748FFF721
:1033240005FE4FF480713648FFF700FE324B06224B
:103334001A705CE04FF480713148FFF705FE4021BC
:103344002F48FFF7F3FD2C4B07221A704FE0402162
:103354002B48FFF7F9FD80212948FFF7E7FD264BAD
:1033640008221A7043E080212548FFF7EDFD4FF451
:1033740000512248FFF7DAFD1F4B09221A7036E08C
:103384004FF480611D48FFF7DFFD4FF400611B48D7
:10339400FFF7CCFD4FF400511848FFF7C7FD164B5B
:1033A4000A221A7023E04FF400611448FFF7CCFDA1
:1033B40020211348FFF7BAFD4FF400510F48FFF7DF
:1033C400B5FD0D4B0B221A7011E020210C48FFF7BC
:1033D400BBFD04210948FFF7A9FD4FF4005107483C
:1033E400FFF7A4FD044B00221A7000E000BF00BFE9
:1033F4000837BD4680BD00BF8C090020000802408C
:103404000004024080B500AF114B124A1A60104B01
:103414004FF4E1325A600E4B00229A600C4B0022AA
:10342400DA600B4B00221A61094B0C225A61084BDB
:1034340000229A61064B0022DA61054802F084FFFB
:103444000346002B01D0FDF78BFD00BF80BD00BFFC
:10345400200A00200050004080B500AF114B124AF2
:103464001A60104B4FF461225A600E4B00229A608E
:103474000C4B0022DA600B4B00221A61094B0C2220
:103484005A61084B00229A61064B0022DA61054812
:1034940002F05AFF0346002B01D0FDF761FD00BF87
:1034A40080BD00BF640A00200014014080B58CB0C8
:1034B40000AF786007F11C0300221A605A609A601A
:1034C400DA601A617B681B68494A934253D100232E
:1034D400BB61484B1B6C474A43F480131364454B50
:1034E4001B6C03F48013BB61BB6900237B61414BFC
:1034F4001B6B404A43F0040313633E4B1B6B03F006
:1035040004037B617B6900233B613A4B1B6B394AA3
:1035140043F008031363374B1B6B03F008033B6151
:103524003B694FF48053FB6102233B6200237B62BF
:103534000323BB620823FB6207F11C0319462E48D0
:1035440000F0B0FE0423FB6102233B6200237B6294
:103554000323BB620823FB6207F11C0319462748B7
:1035640000F0A0FE00220021352000F0D2FD35201D
:1035740000F0EBFD38E07B681B68214A934233D1AD
:103584000023FB601B4B5B6C1A4A43F0200353641B
:10359400184B5B6C03F02003FB60FB680023BB60EB
:1035A400144B1B6B134A43F004031363114B1B6B43
:1035B40003F00403BB60BB68C023FB6102233B62CE
:1035C40000237B620323BB620823FB6207F11C0315
:1035D4001946094800F066FE00220021472000F049
:1035E40098FD472000F0B1FD00BF3037BD4680BDD7
:1035F400005000400038024000080240000C024025
:1036040000140140DFF834D00D480E490E4A00235F
:1036140002E0D458C4500433C4188C42F9D30B4A82
:103624000B4C002301E013600432A242FBD3FFF7EA
:103634006BFC04F02FF9FDF769FB704700000220D2
:103644000000002014000020207A0008140000204C
:10365400AC0A0020FEE7000080B500AF0E4B1B68EB
:103664000D4A43F4007313600B4B1B680A4A43F47E
:1036740080631360084B1B68074A43F4807313602C
:10368400032000F03BFD0F2000F008F8FFF7A0FA3C
:103694000023184680BD00BF003C024080B582B0C4
:1036A40000AF7860124B1A68124B1B7819464FF41E
:1036B4007A73B3FBF1F3B2FBF3F3184600F053FD56
:1036C4000346002B01D001230EE07B680F2B0AD8A0
:1036D400002279684FF0FF3000F01BFD064A7B683A
:1036E4001360002300E0012318460837BD4680BD5F
:1036F40008000020100000200C00002080B400AF5F
:10370400064B1B781A46064B1B681344044A136085
:1037140000BFBD465DF8047B704700BF1000002069
:10372400A80A002080B400AF034B1B681846BD46AE
:103734005DF8047B704700BFA80A002080B584B000
:1037440000AF78600023FB737B68002B01D1012359
:1037540033E07B681B6C002B09D17868FCF724FFED
:103764007B6800225A647B68002283F83C207B68D3
:103774001B6C03F01003002B18D17B681B6C23F423
:10378400885323F0020343F002027B681A647868CA
:1037940000F0E8FA7B6800225A647B681B6C23F013
:1037A400030343F001027B681A6401E00123FB7305
:1037B4007B68002283F83C20FB7B18461037BD460B
:1037C40080BD000080B485B000AF78600023BB608A
:1037D4007B6893F83C30012B01D10223B2E07B6873
:1037E400012283F83C207B681B689B6803F001037B
:1037F400012B18D07B681B689A687B681B6842F0B1
:1038040001029A60524B1B68524AA2FB03239A0C92
:1038140013465B001344BB6002E0BB68013BBB6022
:10382400BB68002BF9D17B681B689B6803F001031C
:10383400012B7AD17B681B6C23F4E06323F0010332
:1038440043F480727B681A647B681B685B6803F4CA
:103854008063002B07D07B681B6C23F4405343F434
:1038640080527B681A647B681B6C03F48053B3F545
:10387400805F06D17B685B6C23F006027B685A6428
:1038840002E07B6800225A647B68002283F83C20B3
:10389400314BFB607B681B686FF022021A60FB6887
:1038A4005B6803F01F03002B2AD17B681B682B4A3B
:1038B400934215D07B681B68294A934205D1264B55
:1038C4005B6803F01F03002B0AD07B681B68254A42
:1038D400934236D1204B5B6803F01003002B30D1A8
:1038E4007B681B689B6803F04053002B29D17B68DD
:1038F4001B689A687B681B6842F080429A6020E0EB
:103904007B681B68154A93421BD17B681B689B68C4
:1039140003F04053002B14D17B681B689A687B68C2
:103924001B6842F080429A600BE07B681B6C43F09A
:1039340010027B681A647B685B6C43F001027B684D
:103944005A64002318461437BD465DF8047B70475B
:103954000800002083DE1B430023014000200140B7
:10396400002101400022014080B483B000AF7860A0
:103974007B6893F83C30012B01D1022321E07B6862
:10398400012283F83C207B681B689A687B681B686B
:1039940022F001029A607B681B689B6803F00103B4
:1039A400002B09D17B681B6C23F4885323F001039B
:1039B40043F001027B681A647B68002283F83C2090
:1039C400002318460C37BD465DF8047B704780B56C
:1039D40084B000AF786039600023FB607B681B68AB
:1039E4009B6803F48063B3F5806F13D17B681B6815
:1039F4009B6803F48073B3F5807F0BD17B681B6CE9
:103A040043F020027B681A647B68002283F83C2020
:103A1400012363E0FFF786FEF86021E03B68B3F121
:103A2400FF3F1DD03B68002B07D0FFF77BFE02460B
:103A3400FB68D31A3A689A4212D27B681B681B68E7
:103A440003F00203022B0BD07B681B6C43F00402CF
:103A54007B681A647B68002283F83C2003233DE0E2
:103A64007B681B681B6803F00203022BD6D17B68BA
:103A74001B686FF012021A607B681B6C43F40072BF
:103A84007B681A647B681B689B6803F04053002BB7
:103A940023D17B681B7E002B1FD17B681B68DB6AEC
:103AA40003F47003002B06D07B681B689B6803F447
:103AB4008063002B11D17B681B6C23F480727B68BC
:103AC4001A647B681B6C03F48053002B05D17B685C
:103AD4001B6C43F001027B681A64002318461037FC
:103AE400BD4680BD80B483B000AF78607B681B683E
:103AF400DB6C18460C37BD465DF8047B704700004C
:103B040080B485B000AF786039600023BB607B6807
:103B140093F83C30012B01D1022313E17B6801228D
:103B240083F83C203B681B68092B25D97B681B68FC
:103B3400D9683B681B689BB21A4613465B00134462
:103B44001E3B072202FA03F3DA437B681B680A4030
:103B5400DA607B681B68D9683B689A683B681B68B5
:103B64009BB2184603465B0003441E3B9A407B68A5
:103B74001B680A43DA6022E07B681B6819693B68AA
:103B84001B689BB21A4613465B001344072202FAD1
:103B940003F3DA437B681B680A401A617B681B687D
:103BA40019693B689A683B681B689BB218460346D0
:103BB4005B0003449A407B681B680A431A613B68B4
:103BC4005B68062B24D87B681B68596B3B685A6872
:103BD40013469B001344053B1F2202FA03F3DA4306
:103BE4007B681B680A405A637B681B68596B3B6897
:103BF4001B689BB218463B685A6813469B001344E3
:103C0400053B00FA03F27B681B680A435A634CE0E5
:103C14003B685B680C2B24D87B681B68196B3B687A
:103C24005A6813469B001344233B1F2202FA03F3F2
:103C3400DA437B681B680A401A637B681B68196B4C
:103C44003B681B689BB218463B685A6813469B0046
:103C54001344233B00FA03F27B681B680A431A638C
:103C640023E07B681B68D96A3B685A6813469B004B
:103C74001344413B1F2202FA03F3DA437B681B68B7
:103C84000A40DA627B681B68D96A3B681B689BB28E
:103C940018463B685A6813469B001344413B00FA9C
:103CA40003F27B681B680A43DA62294BFB607B687A
:103CB4001B68284A93420FD13B681B68122B0BD117
:103CC400FB685B6823F40002FB685A60FB685B686E
:103CD40043F48002FB685A607B681B681D4A934268
:103CE4002BD13B681B681C4A934203D03B681B687A
:103CF400112B22D1FB685B6823F48002FB685A60B5
:103D0400FB685B6843F40002FB685A603B681B680D
:103D1400114A934211D1114B1B68114AA2FB032390
:103D24009A0C13469B0013445B00BB6002E0BB6823
:103D3400013BBB60BB68002BF9D17B68002283F890
:103D44003C20002318461437BD465DF8047B7047B9
:103D54000023014000200140120000100800002050
:103D640083DE1B4380B485B000AF7860794BFB6081
:103D7400FB685B6823F44032FB685A60FB685A684E
:103D84007B685B681A43FB685A607B681B685A68E7
:103D94007B681B6822F480725A607B681B685968D0
:103DA4007B681B691A027B681B680A435A607B683C
:103DB4001B685A687B681B6822F040725A607B68F3
:103DC4001B6859687B689A687B681B680A435A6059
:103DD4007B681B689A687B681B6822F400629A609F
:103DE4007B681B6899687B68DA687B681B680A4390
:103DF4009A607B689B6A584A934222D07B681B680E
:103E04009A687B681B6822F070629A607B681B6802
:103E140099687B689A6A7B681B680A439A607B6826
:103E24001B689A687B681B6822F040529A607B6822
:103E34001B6899687B68DA6A7B681B680A439A6026
:103E44000FE07B681B689A687B681B6822F07062CD
:103E54009A607B681B689A687B681B6822F04052F2
:103E64009A607B681B689A687B681B6822F0020270
:103E74009A607B681B6899687B681B7E5A007B6824
:103E84001B680A439A607B6893F82030002B1BD090
:103E94007B681B685A687B681B6842F400625A603E
:103EA4007B681B685A687B681B6822F460425A600E
:103EB4007B681B6859687B685B6A013B5A037B68B3
:103EC4001B680A435A6007E07B681B685A687B6872
:103ED4001B6822F400625A607B681B68DA6A7B689C
:103EE4001B6822F47002DA627B681B68D96A7B68FB
:103EF400DB69013B1A057B681B680A43DA627B684D
:103F04001B689A687B681B6822F400729A607B685D
:103F14001B6899687B6893F830305A027B681B6889
:103F24000A439A607B681B689A687B681B6822F462
:103F340080629A607B681B6899687B685B699A02F7
:103F44007B681B680A439A6000BF1437BD465DF85E
:103F5400047B7047002301400100000F80B485B04A
:103F640000AF78607B6803F00703FB600C4BDB68F1
:103F7400BB60BA684FF6FF031340BB60FB681A02CC
:103F8400BB68134343F0BF6343F40033BB60044A8C
:103F9400BB68D36000BF1437BD465DF8047B70472F
:103FA40000ED00E080B400AF044BDB681B0A03F0B3
:103FB40007031846BD465DF8047B704700ED00E03A
:103FC40080B483B000AF0346FB7197F90730002B30
:103FD4000BDBFB7903F01F02074997F907305B09F4
:103FE400012000FA02F241F8232000BF0C37BD463D
:103FF4005DF8047B704700BF00E100E080B483B04B
:1040040000AF03463960FB7197F90730002B0ADBD8
:104014003B68DAB20C4997F907301201D2B20B446B
:1040240083F800230AE03B68DAB20849FB7903F01D
:104034000F03043B1201D2B20B441A7600BF0C37B3
:10404400BD465DF8047B704700E100E000ED00E050
:1040540080B489B000AFF860B9607A60FB6803F09F
:104064000703FB61FB69C3F10703042B28BF042387
:10407400BB61FB690433062B02D9FB69033B00E0F7
:1040840000237B614FF0FF32BB6902FA03F3DA438A
:10409400BB681A407B699A404FF0FF317B6901FA93
:1040A40003F3D9437B680B40134318462437BD46BA
:1040B4005DF8047B7047000080B582B000AF786083
:1040C4007B68013BB3F1807F01D301230FE00A4AEF
:1040D4007B68013B53600F214FF0FF30FFF78EFFE9
:1040E400054B00229A60044B07221A6000231846ED
:1040F4000837BD4680BD00BF10E000E080B582B047
:1041040000AF78607868FFF729FF00BF0837BD4625
:1041140080BD80B586B000AF0346B9607A60FB739A
:1041240000237B61FFF73EFF78617A68B96878699C
:10413400FFF78EFF024697F90F3011461846FFF736
:104144005DFF00BF1837BD4680BD80B582B000AFAB
:104154000346FB7197F907301846FFF731FF00BF9C
:104164000837BD4680BD80B582B000AF78607868FE
:10417400FFF7A2FF034618460837BD4680BD80B549
:1041840084B000AF78607B689B6DFB60FFF7CAFA70
:10419400B8607B6893F83530DBB2022B08D07B68BB
:1041A40080225A657B68002283F83420012352E080
:1041B4007B681B681A687B681B6822F016021A6009
:1041C4007B681B685A697B681B6822F080025A610D
:1041D4007B681B6C002B03D17B689B6C002B07D086
:1041E4007B681B681A687B681B6822F008021A60E7
:1041F4007B681B681A687B681B6822F001021A60DE
:1042040013E0FFF78FFA0246BB68D31A052B0CD9CB
:104214007B6820225A657B68032283F835207B68FB
:10422400002283F83420032315E07B681B681B6895
:1042340003F00103002BE4D17B68DB6D3F229A403D
:10424400FB689A607B68012283F835207B68002232
:1042540083F83420002318461037BD4680BD80B44F
:1042640083B000AF78607B6893F83530DBB2022B03
:1042740004D07B6880225A6501230CE07B68052208
:1042840083F835207B681B681A687B681B6822F0FA
:1042940001021A60002318460C37BD465DF8047B02
:1042A4007047000080B489B000AF786039600023A3
:1042B4007B6100233B610023BB610023FB6165E15B
:1042C4000122FB6902FA03F37B613B681B687A698C
:1042D40013403B613A697B699A4240F054813B68E0
:1042E4005B6803F00303012B05D03B685B6803F0B4
:1042F4000303022B30D17B689B68BB61FB695B00C5
:10430400032202FA03F3DB43BA691340BB613B683F
:10431400DA68FB695B0002FA03F3BA691343BB6111
:104324007B68BA699A607B685B68BB610122FB6940
:1043340002FA03F3DB43BA691340BB613B685B6871
:104344001B0903F00102FB6902FA03F3BA69134380
:10435400BB617B68BA695A603B685B6803F003031E
:10436400032B17D07B68DB68BB61FB695B0003220E
:1043740002FA03F3DB43BA691340BB613B689A68F2
:10438400FB695B0002FA03F3BA691343BB617B6800
:10439400BA69DA603B685B6803F00303022B23D13C
:1043A400FB69DA087B68083253F82230BB61FB6989
:1043B40003F007039B000F2202FA03F3DB43BA69FD
:1043C4001340BB613B681A69FB6903F007039B0058
:1043D40002FA03F3BA691343BB61FB69DA087B6829
:1043E4000832B96943F822107B681B68BB61FB691A
:1043F4005B00032202FA03F3DB43BA691340BB6197
:104404003B685B6803F00302FB695B0002FA03F399
:10441400BA691343BB617B68BA691A603B685B681D
:1044240003F44033002B00F0AE800023FB605D4BAF
:104434005B6C5C4A43F4804353645A4B5B6C03F4F7
:104444008043FB60FB68584AFB699B08023352F8BF
:104454002330BB61FB6903F003039B000F2202FAC4
:1044640003F3DB43BA691340BB617B684F4A934251
:1044740025D07B684E4A93421FD07B684D4A9342B5
:1044840019D07B684C4A934213D07B684B4A9342C1
:104494000DD07B684A4A934207D07B68494A9342CD
:1044A40001D106230CE007230AE0052308E00423D6
:1044B40006E0032304E0022302E0012300E00023DA
:1044C400FA6902F0030292009340BA691343BB6194
:1044D4003549FB699B080233BA6941F823203A4BFA
:1044E4009B68BB613B69DB43BA691340BB613B68B2
:1044F4005B6803F48013002B03D0BA693B69134350
:10450400BB61314ABB6993602F4BDB68BB613B697C
:10451400DB43BA691340BB613B685B6803F4001377
:10452400002B03D0BA693B691343BB61264ABB69BC
:10453400D360254B5B68BB613B69DB43BA691340BD
:10454400BB613B685B6803F40033002B03D0BA699A
:104554003B691343BB611C4ABB6953601A4B1B681C
:10456400BB613B69DB43BA691340BB613B685B6871
:1045740003F48033002B03D0BA693B691343BB6156
:10458400114ABB691360FB690133FB61FB690F2BA3
:104594007FF696AE00BF00BF2437BD465DF8047BAE
:1045A400704700BF0038024000380140000002405C
:1045B4000004024000080240000C024000100240C7
:1045C4000014024000180240003C014080B485B051
:1045D40000AF78600B467B807B681A697B88134048
:1045E400002B02D00123FB7301E00023FB73FB7B50
:1045F40018461437BD465DF8047B704780B485B017
:1046040000AF78600B467B807B685B69FB607A88CF
:10461400FB6813401A04FB68D9437B880B401A4398
:104624007B689A6100BF1437BD465DF8047B704710
:1046340080B582B000AF00237B6000233B60204B39
:104644001B6C1F4A43F0805313641D4B1B6C03F017
:1046540080533B603B681B4B01221A60FFF762F8F2
:10466400786009E0FFF75EF802467B68D31AB3F579
:104674007A7F01D903231FE0134B5B6803F4803373
:10468400B3F5803FEED1114B01221A60FFF74AF8CF
:10469400786009E0FFF746F802467B68D31AB3F561
:1046A4007A7F01D9032307E0074B5B6803F40033E7
:1046B400B3F5003FEED1002318460837BD4680BD50
:1046C4000038024040000E420070004044000E4298
:1046D40080B584B000AF786039607B68002B01D16D
:1046E4000123CCE0684B1B6803F00F033A689A423D
:1046F4000CD9654B3A68D2B21A70634B1B6803F04D
:104704000F033A689A4201D00123B8E07B681B6822
:1047140003F00203002B20D07B681B6803F0040322
:10472400002B05D0594B9B68584A43F4E0539360DF
:104734007B681B6803F00803002B05D0534B9B6870
:10474400524A43F460439360504B9B6823F0F00259
:104754007B689B684D4913438B607B681B6803F03F
:104764000103002B44D07B685B68012B07D1474BC6
:104774001B6803F40033002B19D101237FE07B680D
:104784005B68022B03D07B685B68032B07D13F4B2C
:104794001B6803F00073002B09D101236FE03B4B2E
:1047A4001B6803F00203002B01D1012367E0374BA0
:1047B4009B6823F003027B685B68344913438B6076
:1047C400FEF7B0FFF8600AE0FEF7ACFF0246FB68B4
:1047D400D31A41F28832934201D903234FE02B4B81
:1047E4009B6803F00C027B685B689B009A42EBD1E8
:1047F400254B1B6803F00F033A689A420CD2224BF4
:104804003A68D2B21A70204B1B6803F00F033A685F
:104814009A4201D0012332E07B681B6803F0040351
:10482400002B08D0194B9B6823F4E0527B68DB68AB
:10483400164913438B607B681B6803F00803002B45
:1048440009D0124B9B6823F460427B681B69DB0030
:104854000E4913438B6000F055F802460B4B9B68DE
:104864001B0903F00F030A49CB5C22FA03F3094A3C
:104874001360094B1B681846FEF710FF0023184607
:104884001037BD4680BD00BF003C024000380240E6
:10489400F8790008080000200C00002080B400AF64
:1048A400034B1B681846BD465DF8047B704700BF88
:1048B4000800002080B500AFFFF7F0FF0246054B6B
:1048C4009B689B0A03F007030349CB5C22FA03F3BA
:1048D400184680BD00380240087A000880B500AF51
:1048E400FFF7DCFF0246054B9B685B0B03F00703F5
:1048F4000349CB5C22FA03F3184680BD003802401A
:10490400087A00082DE9B04FA6B000AF0023C7F81D
:104914008C300023C7F894300023C7F88830002374
:10492400C7F884300023C7F89030C84B9B6803F065
:104934000C030C2B00F27E8101A252F823F000BF7D
:1049440079490008394C0008394C0008394C0008F2
:1049540081490008394C0008394C0008394C0008DA
:1049640089490008394C0008394C0008394C0008C2
:10497400F34A0008B64BC7F890305FE1B54BC7F86F
:1049840090305BE1B14B5B6803F03F03C7F88C30B8
:10499400AE4B5B6803F48003002B31D0AB4B5B68F8
:1049A4009B090022BB66FA66BB6EC3F308033B6631
:1049B40000237B66A74BD7E918452A4603FB02F27E
:1049C4000023214601FB03F31344A24A2146A1FB21
:1049D4000212FA670A46BA67FA6F1344FB67D7F8FC
:1049E4008C300022BB65FA65D7E91623D7E91E018E
:1049F400FBF706FC02460B461346C7F8943064E006
:104A0400924B5B689B0900223B657A653B6DC3F35F
:104A14000803BB640023FB64D7E9124522462B46F6
:104A24004FF000004FF00001590141EAD2615001FA
:104A340002460B462146511A3961294663EB0103AC
:104A44007B614FF000024FF00003D7E904AB5946F5
:104A54008B01514643EA916351468A015146B2EBB8
:104A64000108594663EB01094FF000024FF00003BF
:104A74004FEAC90343EA58734FEAC802904699467D
:104A8400234618EB0303BB602B4649EB0303FB608F
:104A94004FF000024FF00003D7E9024529468B028C
:104AA400214643EA915321468A0210461946D7F813
:104AB4008C3000223B647A64D7E91023FBF7A0FB17
:104AC40002460B461346C7F89430604B5B681B0CD8
:104AD40003F0030301335B00C7F88830D7F8942050
:104AE400D7F88830B2FBF3F3C7F89030A6E0574B01
:104AF4005B6803F03F03C7F88C30544B5B6803F4E6
:104B04008003002B2AD0514B5B689B090022BB63B6
:104B1400FA63BB6BC3F3080000214E4B03FB01F2A5
:104B2400002300FB03F313444A4AA0FB02127A67F2
:104B34000A463A677A6F13447B67D7F88C300022B1
:104B44003B637A63D7E90C23D7E91C01FBF758FBD5
:104B540002460B461346C7F894305BE03B4B5B6858
:104B64009B090022BB62FA62BB6AC3F308033B627F
:104B740000237B62D7E9088942464B464FF0000088
:104B84004FF00001590141EAD261500102460B463F
:104B94004146B2EB010A494663EB010B4FF00002B8
:104BA4004FF000034FEA8B1343EA9A634FEA8A12E9
:104BB400B2EB0A0463EB0B054FF000024FF0000365
:104BC400EB0043EA5473E20014461D464346E318DF
:104BD4003B604B4645EB03037B604FF000024FF014
:104BE4000003D7E9004529468B02214643EA915345
:104BF40021468A0210461946D7F88C300022BB6140
:104C0400FA61D7E90623FBF7FBFA02460B46134683
:104C1400C7F894300D4B5B681B0F03F00703C7F80C
:104C24008430D7F89420D7F88430B2FBF3F3C7F874
:104C3400903003E0064BC7F8903000BFD7F89030AF
:104C440018469837BD46BDE8B08F00BF0038024013
:104C54000024F40000366E0180B586B000AF7860A1
:104C64007B68002B01D101238DE27B681B6803F074
:104C74000103002B00F08380944B9B6803F00C032A
:104C8400042B19D0914B9B6803F00C03082B06D11D
:104C94008E4B5B6803F48003B3F5800F0CD08B4B11
:104CA4009B6803F00C030C2B12D1884B5B6803F454
:104CB4008003B3F5800F0BD1844B1B6803F40033DE
:104CC400002B5BD07B685B68002B57D101235AE231
:104CD4007B685B68B3F5803F06D17C4B1B687B4ADD
:104CE40043F4803313601DE07B685B68B3F5A02F49
:104CF4000CD1764B1B68754A43F480231360734BC5
:104D04001B68724A43F4803313600BE06F4B1B68DB
:104D14006E4A23F4803313606C4B1B686B4A23F494
:104D2400802313607B685B68002B13D0FEF7FAFCCA
:104D3400386108E0FEF7F6FC02463B69D31A642B9F
:104D440001D903231FE2614B1B6803F40033002BDA
:104D5400F0D014E0FEF7E6FC386108E0FEF7E2FC70
:104D640002463B69D31A642B01D903230BE2574B48
:104D74001B6803F40033002BF0D100E000BF7B6814
:104D84001B6803F00203002B6FD0504B9B6803F0A9
:104D94000C03002B17D04D4B9B6803F00C03082B1E
:104DA40005D14A4B5B6803F48003002B0BD0474BBF
:104DB4009B6803F00C030C2B1CD1444B5B6803F47D
:104DC4008003002B16D1414B1B6803F00203002B18
:104DD40005D07B68DB68012B01D00123D3E13B4B79
:104DE4001B6823F0F8027B681B69DB003749134317
:104DF4000B603AE07B68DB68002B20D0344B012247
:104E04001A60FEF78FFC386108E0FEF78BFC02465F
:104E14003B69D31A022B01D90323B4E12B4B1B6842
:104E240003F00203002BF0D0284B1B6823F0F80298
:104E34007B681B69DB00254913430B6015E0244B99
:104E440000221A60FEF76EFC386108E0FEF76AFC87
:104E540002463B69D31A022B01D9032393E11B4B6E
:104E64001B6803F00203002BF0D17B681B6803F07E
:104E74000803002B36D07B685B69002B16D0154BDA
:104E840001221A60FEF74EFC386108E0FEF74AFC86
:104E940002463B69D31A022B01D9032373E10B4B5E
:104EA4005B6F03F00203002BF0D01BE0094B0022E0
:104EB4001A60FEF737FC38610EE0FEF733FC024659
:104EC4003B69D31A022B07D903235CE10038024063
:104ED40000004742800E47428A4B5B6F03F0020397
:104EE400002BEAD17B681B6803F00403002B00F05D
:104EF40097800023FB75834B1B6C03F08053002BBE
:104F04000FD10023BB607F4B1B6C7E4A43F0805360
:104F140013647C4B1B6C03F08053BB60BB680123A0
:104F2400FB75794B1B6803F48073002B18D1764B07
:104F34001B68754A43F480731360FEF7F3FB386112
:104F440008E0FEF7EFFB02463B69D31A022B01D9B6
:104F5400032318E16C4B1B6803F48073002BF0D01F
:104F64007B689B68012B06D1664B1B6F654A43F037
:104F7400010313671CE07B689B68052B0CD1614B14
:104F84001B6F604A43F0040313675E4B1B6F5D4A5B
:104F940043F0010313670BE05A4B1B6F594A23F08C
:104FA40001031367574B1B6F564A23F0040313671F
:104FB4007B689B68002B15D0FEF7B4FB38610AE0D0
:104FC400FEF7B0FB02463B69D31A41F288329342A2
:104FD40001D90323D7E04B4B1B6F03F00203002BD3
:104FE400EED014E0FEF79EFB38610AE0FEF79AFB70
:104FF40002463B69D31A41F28832934201D9032312
:10500400C1E0404B1B6F03F00203002BEED1FB7D8C
:10501400012B05D13B4B1B6C3A4A23F0805313649C
:105024007B689B69002B00F0AD80364B9B6803F0D6
:105034000C03082B60D07B689B69022B45D1334B52
:1050440000221A60FEF76EFB386108E0FEF76AFB87
:1050540002463B69D31A022B01D9032393E0294B5F
:105064001B6803F00073002BF0D17B68DA697B685E
:105074001B6A1A437B685B6A9B011A437B689B6AC1
:105084005B08013B1B041A437B68DB6A1B061A435B
:105094007B681B6B1B071B4913434B601B4B012293
:1050A4001A60FEF73FFB386108E0FEF73BFB02465F
:1050B4003B69D31A022B01D9032364E0114B1B680B
:1050C40003F00073002BF0D05CE0104B00221A6058
:1050D400FEF728FB386108E0FEF724FB02463B6933
:1050E400D31A022B01D903234DE0064B1B6803F0AE
:1050F4000073002BF0D145E07B689B69012B07D13D
:10510400012340E000380240007000406000474244
:105114001F4B5B68FB607B689B69012B30D0FB688D
:1051240003F480027B68DB699A4229D1FB6803F0AF
:105134003F027B681B6A9A4222D1FA6847F6C07321
:1051440013407A68526A9201934219D1FB6803F4BE
:1051540040327B689B6A5B08013B1B049A420FD177
:10516400FB6803F070627B68DB6A1B069A4207D116
:10517400FB6803F0E0427B681B6B1B079A4201D07B
:10518400012300E0002318461837BD4680BD00BF48
:105194000038024080B582B000AF78607B68002B95
:1051A40001D1012341E07B6893F83D30DBB2002B51
:1051B40006D17B68002283F83C207868FDF798FFCD
:1051C4007B68022283F83D207B681A687B6804337D
:1051D4001946104600F018FD7B68012283F846202A
:1051E4007B68012283F83E207B68012283F83F20FC
:1051F4007B68012283F840207B68012283F84120E8
:105204007B68012283F842207B68012283F84320D3
:105214007B68012283F844207B68012283F84520BF
:105224007B68012283F83D20002318460837BD46D9
:1052340080BD000080B485B000AF78607B6893F8CF
:105244003D30DBB2012B01D001234EE07B6802220A
:1052540083F83D207B681B68DA687B681B6842F032
:105264000102DA607B681B68234A934222D07B6880
:105274001B68B3F1804F1DD07B681B681F4A9342A3
:1052840018D07B681B681E4A934213D07B681B6846
:105294001C4A93420ED07B681B681B4A934209D078
:1052A4007B681B68194A934204D07B681B68184AC0
:1052B400934211D17B681B689B6803F00703FB6072
:1052C400FB68062B10D07B681B681A687B681B6818
:1052D40042F001021A6007E07B681B681A687B6869
:1052E4001B6842F001021A60002318461437BD46B9
:1052F4005DF8047B704700BF0000014000040040DB
:1053040000080040000C004000040140004001403F
:105314000018004080B483B000AF78607B681B68DD
:10532400DA687B681B6822F00102DA607B681B681C
:105334001A6A41F211131340002B0FD17B681B68CA
:105344001A6A40F244431340002B07D17B681B6860
:105354001A687B681B6822F001021A607B680122CC
:1053640083F83D20002318460C37BD465DF8047BC6
:10537400704780B582B000AF78607B68002B01D1A4
:10538400012341E07B6893F83D30DBB2002B06D16A
:105394007B68002283F83C20786800F039F87B6849
:1053A400022283F83D207B681A687B68043319461F
:1053B400104600F029FC7B68012283F846207B68B4
:1053C400012283F83E207B68012283F83F207B681A
:1053D400012283F840207B68012283F841207B6806
:1053E400012283F842207B68012283F843207B68F2
:1053F400012283F844207B68012283F845207B68DE
:10540400012283F83D20002318460837BD4680BD9D
:1054140080B483B000AF786000BF0C37BD465DF840
:10542400047B704780B584B000AF786039603B6816
:10543400002B09D17B6893F83E30DBB2012B14BFFB
:1054440001230023DBB222E03B68042B09D17B68F3
:1054540093F83F30DBB2012B14BF01230023DBB2EE
:1054640015E03B68082B09D17B6893F84030DBB228
:10547400012B14BF01230023DBB208E07B6893F8FF
:105484004130DBB2012B14BF01230023DBB2002B1C
:1054940001D001237CE03B68002B04D17B6802220D
:1054A40083F83E2013E03B68042B04D17B6802227E
:1054B40083F83F200BE03B68082B04D17B68022271
:1054C40083F8402003E07B68022283F841207B6854
:1054D4001B6801223968184600F080FE7B681B684F
:1054E4002D4A934204D07B681B682C4A934201D115
:1054F400012300E00023002B07D07B681B685A6C53
:105504007B681B6842F400425A647B681B68224A29
:10551400934222D07B681B68B3F1804F1DD07B6817
:105524001B681F4A934218D07B681B681D4A93422C
:1055340013D07B681B681C4A93420ED07B681B689F
:10554400164A934209D07B681B68184A934204D0D8
:105554007B681B68164A934211D17B681B689B6861
:1055640003F00703FB60FB68062B10D07B681B6805
:105574001A687B681B6842F001021A6007E07B68C6
:105584001B681A687B681B6842F001021A600023DA
:1055940018461037BD4680BD00000140000401409C
:1055A4000004004000080040000C0040004001409E
:1055B4000018004080B582B000AF786039607B6825
:1055C4001B6800223968184600F008FE7B681B68D7
:1055D4002E4A934204D07B681B682D4A934201D122
:1055E400012300E00023002B17D07B681B681A6A94
:1055F40041F211131340002B0FD17B681B681A6A08
:1056040040F244431340002B07D17B681B685A6C5B
:105614007B681B6822F400425A647B681B681A6A20
:1056240041F211131340002B0FD17B681B681A6AD7
:1056340040F244431340002B07D17B681B681A686F
:105644007B681B6822F001021A603B68002B04D1BE
:105654007B68012283F83E2013E03B68042B04D1CD
:105664007B68012283F83F200BE03B68082B04D1C0
:105674007B68012283F8402003E07B68012283F8E1
:105684004120002318460837BD4680BD0000014074
:105694000004014080B582B000AF78607B681B686D
:1056A4001B6903F00203022B22D17B681B68DB68B1
:1056B40003F00203022B1BD17B681B686FF002020C
:1056C4001A617B6801221A777B681B689B6903F067
:1056D4000303002B03D0786800F077FA05E07868BC
:1056E40000F069FA786800F07AFA7B6800221A7789
:1056F4007B681B681B6903F00403042B22D17B68BD
:105704001B68DB6803F00403042B1BD17B681B6854
:105714006FF004021A617B6802221A777B681B68A7
:105724009B6903F44073002B03D0786800F04DFAB2
:1057340005E0786800F03FFA786800F050FA7B687A
:1057440000221A777B681B681B6903F00803082B87
:1057540022D17B681B68DB6803F00803082B1BD18C
:105764007B681B686FF008021A617B6804221A7751
:105774007B681B68DB6903F00303002B03D07868A4
:1057840000F023FA05E0786800F015FA786800F074
:1057940026FA7B6800221A777B681B681B6903F072
:1057A4001003102B22D17B681B68DB6803F0100305
:1057B400102B1BD17B681B686FF010021A617B6889
:1057C40008221A777B681B68DB6903F44073002B9B
:1057D40003D0786800F0F9F905E0786800F0EBF997
:1057E400786800F0FCF97B6800221A777B681B68F4
:1057F4001B6903F00103012B0ED17B681B68DB6876
:1058040003F00103012B07D17B681B686FF00102D1
:105814001A617868FDF702FD7B681B681B6903F059
:105824008003802B0ED17B681B68DB6803F0800348
:10583400802B07D17B681B686FF080021A6178683F
:1058440000F078FD7B681B681B6903F04003402B64
:105854000ED17B681B68DB6803F04003402B07D143
:105864007B681B686FF040021A61786800F0C1F928
:105874007B681B681B6903F02003202B0ED17B6817
:105884001B68DB6803F02003202B07D17B681B68AF
:105894006FF020021A61786800F042FD00BF0837FB
:1058A400BD4680BD80B586B000AFF860B9607A604F
:1058B4000023FB75FB6893F83C30012B01D10223D4
:1058C400AEE0FB68012283F83C207B680C2B00F2DD
:1058D4009F8001A252F823F011590008155A0008BC
:1058E400155A0008155A000851590008155A00089D
:1058F400155A0008155A000893590008155A00084B
:10590400155A0008155A0008D3590008FB681B688B
:10591400B968184600F018FAFB681B689A69FB68B6
:105924001B6842F008029A61FB681B689A69FB686D
:105934001B6822F004029A61FB681B689969BB68C2
:105944001A69FB681B680A439A6164E0FB681B6878
:10595400B968184600F068FAFB681B689A69FB6826
:105964001B6842F400629A61FB681B689A69FB68D1
:105974001B6822F480629A61FB681B689969BB68A2
:105984001B691A02FB681B680A439A6143E0FB68BF
:105994001B68B968184600F0BDFAFB681B68DA6931
:1059A400FB681B6842F00802DA61FB681B68DA696D
:1059B400FB681B6822F00402DA61FB681B68D96982
:1059C400BB681A69FB681B680A43DA6123E0FB6859
:1059D4001B68B968184600F011FBFB681B68DA699C
:1059E400FB681B6842F40062DA61FB681B68DA69D1
:1059F400FB681B6822F48062DA61FB681B68D96962
:105A0400BB681B691A02FB681B680A43DA6102E07F
:105A14000123FB7500BFFB68002283F83C20FB7D5B
:105A240018461837BD4680BD80B584B000AF786095
:105A340039600023FB737B6893F83C30012B01D160
:105A44000223B4E07B68012283F83C207B680222B5
:105A540083F83D207B681B689B68BB60BB6823F0B0
:105A64007703BB60BB6823F47F43BB607B681B6820
:105A7400BA689A603B681B68B3F5005F3ED0B3F523
:105A8400005F00F28780B3F5805F00F08680B3F595
:105A9400805F7FD8702B1AD0702B7BD8602B50D0AE
:105AA400602B77D8502B3CD0502B73D8402B58D038
:105AB400402B6FD8302B64D0302B6BD8202B60D088
:105AC400202B67D8002B5CD0102B5AD062E07B6867
